:020000021000EC
:1090000000000120019401004194010043940100FB
:1090100045940100479401004994010000000000BC
:10902000000000000000000000000000B9FF010087
:109030004D94010000000000D9FF0100519401008F
:109040005394010053940100539401005394010080
:109050005394010053940100539401005394010070
:109060005394010053940100539401005394010060
:109070005394010053940100539401005394010050
:109080005394010055FD01005394010053940100D5
:109090005394010053940100219E01005394010058
:1090A0005394010053940100539401005394010020
:1090B00053940100539401000000000000000000E0
:1090C0005394010053940100539401005394010000
:1090D00053940100539401005394010000000000D8
:1090E0000000000000000000000000000000000080
:1090F0000000000000000000000000000000000070
:10910000000000000000000000000000000000005F
:10911000000000000000000000000000000000004F
:10912000000000000000000000000000000000003F
:10913000000000000000000000000000000000002F
:10914000000000000000000000000000000000001F
:10915000000000000000000000000000000000000F
:1091600000000000000000000000000000000000FF
:1091700000000000000000000000000000000000EF
:1091800000000000000000000000000000000000DF
:1091900000000000000000000000000000000000CF
:1091A00000000000000000000000000000000000BF
:1091B00000000000000000000000000000000000AF
:1091C000000000000000000000000000000000009F
:1091D000000000000000000000000000000000008F
:1091E000000000000000000000000000000000007F
:1091F000000000000000000000000000000000006F
:1092000010B5054C237833B9044B13B10448AFF3C0
:1092100000800123237010BDD42300200000000033
:10922000F014020008B5034B1BB103490348AFF328
:10923000008008BD00000000D8230020F0140200C8
:10924000A3F5803A704700BF174B002B08BF134BA4
:109250009D46FFF7F5FF00218B460F461348144A41
:10926000121A07F03FF90E4B002B00D098470D4B18
:10927000002B00D098470020002104000D000D486D
:10928000002802D00C48AFF3008007F0C1F820009E
:10929000290000F01BF807F0A7F800BF0000080045
:1092A000000000000000000000000120D423002086
:1092B00028430020000000000000000008B500F076
:1092C00079F800F059F803F08DF8FAE707B503F0E4
:1092D000AFF80F4B019301230E4900934FF48062C6
:1092E00000230D4802F08CF84FF4407002F098FE15
:1092F00002F0FAF8BFF34F8F0849094BCA6802F42D
:10930000E0621343CB60BFF34F8F00BFFDE700BFA8
:10931000F0230020F40F0200BD92010000ED00E0F8
:109320000400FA057047704710B5114C062120461D
:1093300000F046F9204600F031F90E49204600F0D1
:10934000FCF804F13C0000F009F92046012100F08E
:109350005FF92046F422202100F056F920461E2114
:1093600000F050F920460021BDE8104000F0B4B9EB
:1093700070270020F423002008B54FF47A7003F022
:109380000FF8BDE80840172003F030B910B5064CBF
:109390004FF48071204601F0D3F92046034A044976
:1093A000BDE8104006F0F7BFF423002000230020A2
:1093B000D1A7010010B50E4C0121172003F06EF863
:1093C00000220121204600F041FB2046094900F01F
:1093D0003BFA2046084900F039FAC021204600F047
:1093E000E9FC064801F01EFABDE81040FFF79CBFFB
:1093F000FC2400202593010027930100F423002082
:109400000A490B4A0B4B9B1A03DD043BC858D0504A
:10941000FBDC094809494FF0AD32026004300439E1
:10942000FBD103F025F9FFF70FFF0000FC14020049
:1094300000230020D423002000F8002000080000B2
:10944000FEE7FEE7FEE7FEE7FEE7FEE7FEE7FEE7F4
:10945000FEE7FEE772DF704773DF704777DF704724
:1094600010B500210446C177012207F03BF82046E1
:1094700010BD70B51C46C37F0E461146E2181D2A6A
:1094800005460EDC1844621CEA540230224600F8FD
:10949000016C06F0FFFFEA7F02341444EC770120F0
:1094A00070BD0020FCE70000044A02604A68426088
:1094B0008A688260CA68C260704700BF0C100200F0
:1094C0002DE9F041002688B007460D4601EB021851
:1094D0003446454518D0284600F0DEF9102803D060
:1094E00080280AD01035F4E708AA631C02EB440474
:1094F000AA8824F8202CDCB2F4E71EB1002008B0C2
:10950000BDE8F081AE68EDE714B966B90120F6E771
:10951000630003F0FE036A4603213846FFF7A9FF04
:109520000028F2D1EAE71023324607213846FFF738
:10953000A0FFE4E70122FFF7C3BF1FB504460831CF
:109540006846FFF7B1FF69462046FFF7F3FF044680
:10955000684600F082F9204604B010BD30B589B0ED
:109560000446202269460C4800F0F2FB0346E07FE7
:10957000C2181D2AC5BFC0F11D0308250925DBB28D
:109580006A4629462046FFF774FF18B1A5F1090382
:109590005842584109B030BDFC24002013B50446A0
:1095A000064800F0E5FB01238DF807000DF10702E6
:1095B0000A212046FFF75DFF02B010BDFC24002009
:1095C00007B501238DF807100DF107021946FFF7C3
:1095D00050FF03B05DF804FB10B50446FFF740FFF1
:1095E000064A0023C4E90823054AA262A2F55602EE
:1095F000C4E90B23C4E90D33204610BDFF0101006F
:109600002000F400C185704701854285818570473F
:1096100080F8221070470000F0B5044689B00E466D
:1096200015460021182202A806F05CFF94F82130AC
:109630008DF8083005EB850303EB83039B00224F75
:109640000496ADF814303B78BFF35B8FDB070ED484
:10965000384606F0A5FE50B11C4BE27F9A801C4AAA
:109660009A603846D27F1C609A8106F0A5FE1749A1
:1096700002AA04F12000FFF7EDFE10B1002009B0AE
:10968000F0BD94F820101348019100F071FB01998E
:1096900002460120FFF7E2FE0028EFD194F82000F7
:1096A0000121FFF7D9FE0028E8D10A4800F0C8FBE5
:1096B000628EA685AA424FF0010094BF921A521BF7
:1096C00084F823006286DAE7E8240020EC240020F6
:1096D000AC270020FC24002010B5044641860186FA
:1096E0000548FA2100F047FBE28D218D2046BDE8B8
:1096F0001040FFF791BF00BFFC24002030B50B885D
:109700008D88112B85B004460FD0262B2AD0102B24
:1097100009D1CB7B012B06D1426AAB401343436294
:10972000002380F8233005B030BD436AEB40DB07EF
:10973000F9D5224800F078F80028F4D1012202FA85
:1097400005F3626A22EA030294F823306262002B76
:10975000E9D194F82230002BE5D0218E2046FFF786
:10976000BBFFE0E70B7A012BDDD1002380F823302B
:109770004FF4FA71114800F0FEFA238E43B9A36B3F
:1097800003B198470022618D2046FFF745FFCAE7E5
:10979000658E25B1A36B03B19847628EF3E7074846
:1097A00000F05FFB626B002ABDD0009503AB294639
:1097B0002846039502F0B8FCB5E700BFFC24002062
:1097C00078DF70477ADF704705490022C0E902223E
:1097D000034602460868496803C21846704700BF3E
:1097E000FA0F020008B5FFF7EDFF28B9FFF7E8FF11
:1097F000B0FA80F0400908BD0020FCE710B5094828
:1098000000F005FB044608B9002010BD05F08AFDF4
:109810000028F9D0204605F08CFD431E58425841DF
:10982000F3E700BFFC24002070B5002506462C4657
:10983000A9B23046FFF7E2FF08B10134E4B20135C6
:10984000142DF5D1204670BD81607047C16070470E
:10985000704762DF704763DF7047704710B51021B3
:10986000044602F0A7FD204610BD0000044A026035
:10987000012282710022C0E902228180704700BF6C
:109880000C100200034A0260002281608271828013
:10989000C26070470C1002008379012B08D08268E7
:1098A00042B9C26832B9012B8CBF802000207047BA
:1098B00010207047802070472DE9F34106461020A4
:1098C00001F0A6F80746304606F02DFF0025441E9D
:1098D000A846002C19DB0F2D17D8335D2D2B02D194
:1098E0000134023CF5E73219002112F8012C8DF801
:1098F000042001A81022ADF805808DF8053006F08F
:10990000CDFF6B1C7855DDB2EBE7384602B0BDE801
:10991000F08110B5837904460BB1012010BDC068F9
:1099200010B1FFF7C9FFA060A0680028F5D0A11D05
:10993000FFF78FFFA168221D1020FFF78CFFB0FA00
:1099400080F04009EAE74BDF704710DF704778DFAF
:1099500070477CDF70477DDF704760DF704769DFED
:10996000704761DF704766DF704767DF7047704799
:109970007047000037B50D4C0D4DD4F808034FF07B
:10998000FF3101F0EFFA0028F7D001A8FFF7DBFF65
:109990000528F2D00028F8D10198831E012BF4D8B5
:1099A000002DF2D006F052F9EFE700BFFC240020B2
:1099B0004DFC010038B50446FFF706FF04F1100026
:1099C00005F072FF04F1740005F008FE04F51D7047
:1099D000FFF702FE04F52C70FFF742FD04F534702A
:1099E00005F0BAFD1422002104F53A7006F07AFD64
:1099F000134B14494FF44062C4E9BA23124B0025BB
:109A0000C4E9BC1340F20113A4F8F832A4F8FC52E4
:109A10005022294604F5457006F064FD012384F8C0
:109A200010334FF6FF73C4E9C155C4E9D955C4F8E2
:109A30000C5384F8FE52A4F81233204638BD00BF00
:109A4000010A17000300010117000300F0B5B64D2D
:109A500080F8FC128DB080F8FD2204462868B349D6
:109A6000039003A8FFF771FF014618B100263046A6
:109A70000DB0F0BDAE4B04930C2209A806F032FDE8
:109A800094F8ED32049A8DF8243009A90120FFF7EB
:109A900066FF01460028E9D10C2209A806F022FD44
:109AA00094F8FC32049A8DF8253009A94020FFF77C
:109AB00056FF01460028D9D10C2209A806F012FD54
:109AC0009DF8243094F8EC2209A962F30003A02049
:109AD000049A8DF82430FFF742FF01460028C5D1D3
:109AE0000C2209A806F0FEFCD4F8E832049A099387
:109AF00009A9A120FFF733FF01460028B6D194F849
:109B0000FC32002B6DD194F8FD32002B40F0BA806E
:109B100004A8FFF722FF01460028A7D1082207A8C2
:109B200006F0E0FC9DF81C3007A943F00103022079
:109B30008DF81C30FFF719FF002897D12046FFF75A
:109B400051FE0646002891D004F1100005F0B8FE41
:109B50002B7978488DF8083006F0E5FD754982B21A
:109B600002A8FFF7F6FE054600287FF47FAF014606
:109B70000322012001F052F8C4F8040300283FF446
:109B800075AF05AB03276C4901934FF4A0622B46D8
:109B90006A48009701F034FC3A462946012001F05A
:109BA0003DF8C4F8080300283FF460AF06ABCDE9E8
:109BB0000073634963482B46C82201F021FC624BC5
:109BC0004FF480021A60614B009301222B464FF440
:109BD0008071284602F08EF8C4F80C0300F05EFA9B
:109BE00045E70C2209A806F07DFC0126B4F8EE3208
:109BF000049A8DF8246009A92320ADF82630FFF7D8
:109C0000AEFE014600287FF431AF0C2209A806F011
:109C100069FC94F8FC328DF8263009A9B4F8F032CA
:109C2000049A8DF824602020ADF82830FFF797FEC5
:109C3000014600287FF41AAF0C2209A806F052FC56
:109C400094F8F232049A8DF8246009A922208DF844
:109C50002630FFF784FE014600287FF407AF0C2270
:109C600009A806F03FFC94F8F332049A8DF82460BA
:109C700009A921208DF82630FFF771FE00283FF456
:109C800042AFF3E60C22002109A806F02BFC0226C5
:109C9000B4F8F432049A8DF8246009A92320ADF8B1
:109CA0002630FFF75CFE014600287FF4DFAE0C2271
:109CB00009A806F017FC94F8FD328DF8263009A9A2
:109CC000B4F8F632049A8DF824602020ADF82830DC
:109CD000FFF745FE014600287FF4C8AE0C2209A814
:109CE00006F000FC94F8F832049A8DF8246009A973
:109CF00022208DF82630FFF732FE014600287FF43F
:109D0000B5AE0C2209A806F0EDFB94F8F932049ADE
:109D10008DF8246009A921208DF82630FFF71FFE59
:109D200000283FF4F5AEA1E6681002007199010029
:109D3000002300204C1002005F1002000DA0010063
:109D4000631002007599010000E100E06F990100C5
:109D500007B508460DF10601ADF80620FFF7FBFD3B
:109D600020B99DF8060003B05DF804FB0020FAE777
:109D700090F9FE02704773B50446D0F80C030E4606
:109D800002F004F900230546B6024FF47A72D4F8C3
:109D90000C0300930421B6FBF2F201F0C9FF3DB9B8
:109DA000D4F80C0300952B462A46032101F0C0FF8E
:109DB00002B070BD08B50846FFF7C9FDB0FA80F0E3
:109DC000400908BD132906D800EB8101D1F814031E
:109DD00008B105F0A7BA0020704770B50025064607
:109DE0002C46A9B23046FFF7EDFF08B10134E4B2CA
:109DF0000135142DF5D1204670BDB0F8120370471F
:109E000001290CBFB0F8EE02B0F8F4027047132934
:109E10009ABF00EB8101D1F81403002070470000C5
:109E200010B5064C0021D4F8080300F0F7FFD4F871
:109E300004030021BDE8104000F0F0BFFC24002026
:109E400013B590F8103353B1D0F80C4301F08CFBEC
:109E50000023024600930121204601F069FF02B071
:109E600010BD13B50023009304461A460321D0F811
:109E70000C0301F05DFF204602B0BDE81040FFF783
:109E8000ACBF2DE9F04F8F88132F85B004460D46E7
:109E900027D800EB8703D3F814633EB1304605F0B2
:109EA000A7FA294604F1100005F03CFD2B88112B80
:109EB0005ED018D8012B7BD0102B21D0294604F579
:109EC0001D70FFF71BFCB4F81233BB422B8874D013
:109ED000102B76D1EB7B012B73D1AB88A4F8123316
:109EE0006FE00026E2E71C2BE8D1D4F86423002AB7
:109EF000E4D095F90830039302230297009331E0F0
:109F000004EB87082046FFF7ACFFD8F8140305F1EF
:109F1000080B28B103685B6898470023C8F814331E
:109F2000EB7B3420012B07BF94F8F29294F8F3A254
:109F300094F8F89294F8F9A202F03AFA4B460646E1
:109F40005A463946CDF800A005F0BAF9C8F81463AE
:109F5000304605F0EEF90128B0D1A268002AADD054
:109F600002970090002102AB084602F0DDF8A5E759
:109F70002046FFF732FF304605F0DBF901280BD110
:109F8000E2684AB12B7A039300210223009308462A
:109F900002AB029702F0C8F804EB8708D8F8140364
:109FA00010B103685B6898470023C8F8143385E74D
:109FB00000213846FFF7D7FC80E7102B8AD0112B01
:109FC0001BD0EEB929462046FFF742FC04F5347653
:109FD000304605F0CFFA18B12946304605F0CCFAE4
:109FE000294604F1740005F04BFBD4F868330BB13B
:109FF0002846984705B0BDE8F08F4FF6FF736DE730
:10A00000304605F096F90128E0D1DBE773B54FF44F
:10A01000FA7000F0FDFC0E4D04464FF4FA76D5F8C8
:10A0200004034FF0FF3100F09DFF0028F7D00DF141
:10A0300006012046ADF80660FFF793FC20B92146E3
:10A040002846FFF71EFFF2E70528F0D1E7E700BF3B
:10A05000FC2400200148FFF7ADBC00BFFC24002019
:10A06000B1DF7047B2DF704730B585B053790393E5
:10A0700013790293D37801939378064D064C00939D
:10A080005378127801290CBF2946214606F0ECFAD4
:10A0900005B030BD88100200B510020008B50C48AC
:10A0A00000F078FC0B490A4802F049FC18B909494C
:10A0B000074802F05AFC0849054802F040FC28B95C
:10A0C000BDE808400449024802F04FBC08BD00BF8B
:10A0D00068280020E2100200F61002007FB503237A
:10A0E000CDE90301002105920093044A03AB084621
:10A0F00002F01AF807B05DF804FB00BF35A40100B8
:10A1000010B54B6843608B688360CB68C3600B6994
:10A1100003610B7D03758B698361CB69C3611F315B
:10A1200000F1200300F5907211F8014F03F8014B84
:10A130009342F9D110BD000010B586B01446032338
:10A14000CDE9030105920093034A03AB07212046A2
:10A1500001F0EAFF06B010BD3DA301002DE9F0417A
:10A16000ADF5587D0B78032B164600AF0D464FEA30
:10A17000530208D9022A2ED00024204607F558772A
:10A18000BD46BDE8F081E8468CB04A1C01466846F1
:10A19000FFF76AFF304907F5107002F0DDFC00227E
:10A1A000694607F5107002F006FE044630B9002437
:10A1B00007F5107002F0BAFDC546DEE707F510702E
:10A1C00002F043FD021EF2DD92B2314607F5107037
:10A1D00002F020FDECE7214C21491F4BDFF8848081
:10A1E000012808BF21460022384602F0F9FD1A492D
:10A1F00007F5907002F0B0FC0022394607F51070A8
:10A2000002F002FE07F5107107F59070FFF778FF76
:10A2100002F0F5FD044668B107F5907002F015FDF7
:10A22000502802460AD0002407F5907002F07EFD07
:10A23000002CE1D0384602F079FD9EE7314607F563
:10A24000907002F0E7FC06F138022946404605F01E
:10A2500039FB0446E8E700BF68280020E21002004E
:10A26000F61002000C25002038B5044602F0EDFC83
:10A27000051E08DD204602F011FD2918204602F0D7
:10A28000F3FC012038BD0020FCE70000B0B5D6B0DB
:10A2900000AF01320C46014607F10800FFF7E4FE6B
:10A2A0001E4B002207F1080107F1380002F098FD6B
:10A2B00007F1380002F0A3FD48B9002407F1380087
:10A2C00002F034FD204607F5AC77BD46B0BD07F17E
:10A2D0003800FFF7C9FF07F13800FFF7C5FF07F1A6
:10A2E000380002F0B2FC0028E7DDC31D23F00703AD
:10A2F0006D46ADEB030D82B2694607F138007A6016
:10A3000002F088FC694620467A680323FFF7A8FE1E
:10A31000B0FA80F46409AD46D0E700BF6828002099
:10A3200070B505460E461446D1B202F082FB2246B5
:10A3300031462846BDE8704002F090BB2DE9F0435D
:10A34000D7B00C4600AF00210323064690462046B6
:10A35000BA1DF980FFF786FEFB886D46002B60D0A2
:10A360000733DB08A5EBC3039D4620460323BA1D34
:10A370006946FFF777FEE9460446002851D108F107
:10A380000102314607F10800FFF76EFE284B01225B
:10A3900007F1080107F1380002F022FD07F138004B
:10A3A00002F02DFD00283CD0214607F1380002F0D4
:10A3B0005BFC07F13800FFF757FF07F13800FFF7A4
:10A3C00053FF07F1380002F040FCFB8882B29A424A
:10A3D0001BD1D31DDB08A9EBC3039D46694607F1DA
:10A3E000380002F017FCFA886946484606F044F83F
:10A3F00090B107F1380002F067FCFB88DB431918C5
:10A4000007F1380002F030FCCD46FA88494607F1E2
:10A410003800FFF785FF00E0CD4607F1380002F075
:10A4200085FC07F5AE77AD46BD46BDE8F08300BFBD
:10A4300068280020F0B5E1B004AF0D46144601468F
:10A44000493207F12000FFF70FFE2B4807F12001EA
:10A450006E4602F074FA20B1274807F1200102F09D
:10A46000D4FA254B012207F1200107F1500002F038
:10A47000B7FC07F1500002F0C2FC20B907F5BA772B
:10A48000B546BD46F0BD5022B8182146FFF748FF3B
:10A4900000211C22381D396006F024F8294617488F
:10A4A000FFF7B5FC2022394605F036F83B789BB91A
:10A4B00094F8491094F84D3094F84E20039194F894
:10A4C0004A10029194F84B10019194F84C100091AD
:10A4D00038460B4906F0C8F8384606F024F9013032
:10A4E00082B2394607F15000FFF71AFF07F150001A
:10A4F00002F01CFCC2E700BF68280020FC240020FA
:10A500000A1102000020704707B5036801229B6909
:10A510000DF10701984720B19DF8070003B05DF8E1
:10A5200004FB4FF0FF30F9E7A0F11800FFF7ECBF94
:10A5300013B503688DF807209C6A0DF1070201230B
:10A54000A04702B010BDD0F8D830988980B27047CB
:10A55000A0F11800FFF7F7BF2DE9F04106460846C5
:10A560001C46174604F0A2FD224605463946D0F89F
:10A57000D80001F09EFE844206D9D5F8F0301BB118
:10A58000211A89B230469847D5F8E8301BB13046D9
:10A59000BDE8F0411847BDE8F081000037B5036819
:10A5A0008DF80710044606489D6AFFF726FC012334
:10A5B00001460DF107022046A84703B030BD00BF99
:10A5C000FC240020A0F11800FFF7E8BF73B501924A
:10A5D000026804460648966A0D46FFF70EFC019B8A
:10A5E00001462A462046B44602B0BDE870406047A6
:10A5F000FC240020A0F11800FFF7E8BF08B592B2D4
:10A60000D0F8D80001F090FE08BD07B50021D0F8C1
:10A61000D8000DF1070201F0A7FE20B19DF8070058
:10A6200003B05DF804FB4FF0FF30F9E7A0F118002C
:10A63000FFF7EBBFD0F8D80001F00EBEA0F1180074
:10A64000FFF7F8BF73B5054614480E46FFF7DFFB6A
:10A6500018B90025284602B070BD04F06CFEC21E79
:10A6600092B21046019200F0D3F904460028F0D0CF
:10A670000146019AD5F8E00001F056FE034650B1BC
:10A6800005F128002246314604F094FD0546204697
:10A6900000F0DAF9DEE70125F9E700BFFC2400202D
:10A6A0002DE9F74F054625480E4617469946FFF710
:10A6B000AEFB834620B90024204603B0BDE8F08FEE
:10A6C00005F1280A3146504604F066FD0028F2D014
:10A6D00095F8E4301FFA89F813B1D5F8E00048B9CD
:10A6E00043463A463146504604F064FD0028E2D025
:10A6F0004C46E1E74246394601F0DBFDD5F8E03053
:10A700009B8904469BB25846019304F014FE019BBA
:10A7100003388342ECDB31462846FFF793FF0028DD
:10A72000C9D04C45E4D2A8EB04039BB23A19314698
:10A73000504604F03FFD0028DAD1BDE7FC2400209C
:10A740007FB504460E4668461D49FFF79BF86946EB
:10A75000204605F087F96846FFF77FF800254FF49B
:10A760007A73C4E90753174B174903F108024833BA
:10A770002260A3616846FFF785F8694604F1280066
:10A7800004F080FC6846FFF768F810496846FFF758
:10A7900079F8694604F1800004F074FC6846FFF71C
:10A7A0005CF82046C4E93A55C4F8D850A4F8DC60F7
:10A7B000C4F8F050C4F8E05084F8E45004B070BD20
:10A7C000501102006011020040110200301102001D
:10A7D00010B50D4B0360403304468361D0F8E000B0
:10A7E00010B103685B68984704F1800004F0D6F963
:10A7F00004F1280004F0D2F92046044B40F8083B4D
:10A80000FFF72BF8204610BD68110200C8120200A5
:10A8100010B50446FFF7DCFF2046F42101F0CAFD25
:10A82000204610BD73B50446182001F0C1FD00227A
:10A830000546012101F0F0FC2846B4F8DC10C4F80C
:10A84000D85001F006FD204605F0F0F80546002836
:10A850003BD101211E48FFF7D3FA04F12803064635
:10A8600010211846019304F023FC2A460198112177
:10A8700004F02CFC0198314604F026FC154901989F
:10A8800004F041FC019804F0ADFA0546E8B904F182
:10A8900080000C21019004F00BFC01980E4901226C
:10A8A00004F029FC11220198294604F00FFC0198BC
:10A8B000314604F009FC0198084904F024FC019891
:10A8C00002B0BDE8704004F08DBA284602B070BDF9
:10A8D000FC2400202811020059A501002C110200BF
:10A8E00010B5034B0360044601F0BEFF204610BDC7
:10A8F000CC11020010B50446FFF7F2FF2046A42158
:10A9000001F058FD204610BD08B505F0ABF9002058
:10A9100008BD10B5104601F55A64029A194600EBBD
:10A92000C41005F0A5F9B0FA80F04009404210BD0E
:10A9300008B5104601F55A6100EBC111029A18469C
:10A9400005F0AAF90028CCBF00200120404208BD34
:10A9500073B501F55A61CC010025FF2628190122A3
:10A960000DF1070101358DF8076005F081F9802DA3
:10A97000F4D1002002B070BD10B50449044601F0C6
:10A9800085FF034B2360204610BD00BF0423002039
:10A99000CC11020038B50021044601F08FFF98B9B0
:10A9A0004FF4DA25284605F07FF968B105F58055A2
:10A9B000B5F5E82FF6D1204601F099FF2046002199
:10A9C000BDE8384001F07ABF38BD000010B5054C35
:10A9D0002046FFF7D1FF2046034A0449BDE8104056
:10A9E00005F0D9BC6828002000230020E1A8010060
:10A9F00013B5019000F0B0FD019805F02DFD04465F
:10AA000000F036FE0CB901F0FAFC204602B010BD91
:10AA100010B5044601F02EF80228204603D1BDE807
:10AA20001040FFF7E5BFBDE8104005F015BD10B5BB
:10AA3000044640B100F090FD204605F015FDBDE84C
:10AA4000104000F015BE10BD10B5044601F012F81C
:10AA50000228204603D1BDE81040FFF7E8BFBDE85B
:10AA6000104005F001BD10B5044605F05BF9A46B7C
:10AA700005F062F9B4FA84F0400910BDF8B5154646
:10AA8000026C866B044652B9076847BB406801F008
:10AA900045F8676005460136A6632846F8BD65B9E6
:10AAA000806805F0F7FCA368226C13446268A36019
:10AAB0009342F0D32368A360EDE7C06805F0EAFC99
:10AAC000226CE36851429B1A2268E36093423EBFC6
:10AAD00063685B18E360022D01D116B1013E0025C9
:10AAE000D9E73546D7E7034610B41A6C08466AB171
:10AAF000DC68596814448C4228BF1968DC6028BFA0
:10AB0000D960D9685DF8044B05F0C4BC5DF8044B0E
:10AB1000704770B5044605F005F994F8455004F106
:10AB200024066DB2002D14DCFF2384F8453005F0B7
:10AB300003F905F0F7F894F8445004F110066DB2EB
:10AB4000002D12DCFF2384F84430BDE8704005F08E
:10AB5000F3B8636A002BE7D0304600F0FBFE08B183
:10AB600000F068FF013D6DB2DCE72369002BE9D0FE
:10AB7000304600F0EFFE08B100F05CFF013D6DB221
:10AB8000DEE7000038B504460D4605F0CBF8D4E901
:10AB90000F312268A2604B43D0185B1A13446060E7
:10ABA000E3600020FF23A06384F8443084F845303C
:10ABB0009DB923696BB104F1100000F0CBFE40B1E8
:10ABC0000A4B4FF080525A6040BFBFF34F8FBFF324
:10ABD0006F8F05F0B1F8012038BD04F1100005F0C9
:10ABE0002BFA04F1240005F027FAF2E700ED00E06B
:10ABF00010B51C4683B10123002908BF2246C4E9D1
:10AC00000F0184F84630194622602046FFF7BAFF4C
:10AC10009DF8083084F84C30204610BDF8B5064643
:10AC2000484350300D461746FFF7E2FE044670B128
:10AC3000002380F8463065B100F15003C4E90F6588
:10AC4000236001212046FFF79DFF84F84C702046C9
:10AC5000F8BD0346F2E710B502220C460021FFF7CB
:10AC6000DDFF00B1846310BD2DE9FF474FF0000800
:10AC7000DFF8F8A0019204460F461E46C14605F0D3
:10AC800051F8A26BE36B9A4201D3022E1AD13246DD
:10AC900039462046FFF7F2FE636A1BB104F1240037
:10ACA00000F058FE40B1314B4FF080525A6040BF27
:10ACB000BFF34F8FBFF36F8F05F03EF8012004B054
:10ACC000BDE8F087019D1DB905F036F80020F6E7D4
:10ACD000B8F1000F02D102A800F078FE05F02CF8C0
:10ACE00000F03AFC05F01EF894F84430FF2B08BF42
:10ACF00084F8449094F84530FF2B08BF84F84590C1
:10AD000005F01AF801A902A800F06CFE38BB05F0A6
:10AD100009F8A26BE36B9A420FD105F00DF8019987
:10AD200004F1100000F0F2FD2046FFF7F2FE00F003
:10AD30009FFC50B14FF00108A1E704F0FDFF204651
:10AD4000FFF7E7FE00F094FCF4E74FF08053CAF8F9
:10AD5000043040BFBFF34F8FBFF36F8FEAE7204649
:10AD6000FFF7D7FE00F084FCB0E700BF00ED00E085
:10AD700013B500220B46009011460120FFF738FF63
:10AD8000044638B10023C0E90033C3601A461946AF
:10AD9000FFF76AFF204602B010BD10B50246002141
:10ADA0000120FFF73BFF044638B10023C0E9003320
:10ADB000C3601A461946FFF757FF204610BDF8B585
:10ADC00004461746EFF31186402282F31188806B08
:10ADD000E26B904201D3022B1ED194F845501A46E3
:10ADE0006DB22046FFF74AFE6B1C10D1636A0BB9A7
:10ADF000012009E004F1240000F0ACFD0028F7D0A8
:10AE0000002FF5D00120386086F31188F8BD013598
:10AE10006DB284F84550EBE70020F5E738B50C46F5
:10AE2000EFF31185402383F31188826BC36B934248
:10AE30001BD990F845100132FF294BB282630FD124
:10AE4000436A0BB9012008E0243000F083FD00289C
:10AE5000F8D0002CF6D00120206085F3118838BD91
:10AE600001335BB280F84530ECE70020F5E70000E5
:10AE70002DE9F04385B00027DFF8E4900192044605
:10AE80000E46B84604F04EFFA56BDDB131462046B4
:10AE9000013DFFF728FEA56323696BB104F11000A3
:10AEA00000F058FD40B12E4B4FF080525A6040BF29
:10AEB000BFF34F8FBFF36F8F04F03EFF012005B04B
:10AEC000BDE8F083019D1DB904F036FF0020F6E7D0
:10AED00017B902A800F07AFD04F02EFF00F03CFB49
:10AEE00004F020FF94F84430FF2B08BF84F844801E
:10AEF00094F84530FF2B08BF84F8458004F01CFF10
:10AF000001A902A800F06EFDF8B92046FFF7ABFDDD
:10AF1000A8B1019904F1240000F0F8FC2046FFF7E5
:10AF2000F8FD00F0A5FB40B94FF08053C9F804309C
:10AF300040BFBFF34F8FBFF36F8F0127A2E72046BB
:10AF4000FFF7E7FD00F094FBF7E72046FFF7E1FD90
:10AF500000F08EFB2046FFF786FD0028EDD0B5E718
:10AF600000ED00E02DE9F04385B00025DFF81C91ED
:10AF7000019104462F462E4604F0D4FEA36BEBB19C
:10AF8000013BA363236813B900F02CFE60602369C2
:10AF90006BB104F1100000F0DDFC40B13B4B4FF011
:10AFA00080525A6040BFBFF34F8FBFF36F8F04F0E2
:10AFB000C3FE0125284605B0BDE8F083DDF8048016
:10AFC000B8F1000F03D104F0B7FE0025F2E717B97E
:10AFD00002A800F0FBFC04F0AFFE00F0BDFA04F0A4
:10AFE000A1FE94F84430FF2B08BF84F8446094F825
:10AFF0004530FF2B08BF84F8456004F09DFE01A991
:10B0000002A800F0EFFC48BB2046FFF72CFDF8B18A
:10B0100023683BB904F086FE606800F03BFD0546FE
:10B0200004F08AFE019904F1240000F06FFC204630
:10B03000FFF76FFD00F01CFB40B94FF08053C9F8DB
:10B04000043040BFBFF34F8FBFF36F8F012793E7EB
:10B050002046FFF75EFD00F00BFBF7E72046FFF709
:10B0600058FD00F005FB2046FFF7FDFC0028EDD061
:10B07000002D9FD004F056FE616A19B1236B196848
:10B08000C1F10501606800F075FD9CE700ED00E08E
:10B09000054B1A6812B19A682AB9012243F8321096
:10B0A00003EBC20358607047FC420020084B5A680B
:10B0B00090420AD0DA68904206D10122002143F87A
:10B0C000321003EBC203596070470022F6E700BF5D
:10B0D000FC42002010B5FFF7E9FF90F846301BB99D
:10B0E000BDE81040FFF7A3BC10BD70B504460D4687
:10B0F000164604F017FE94F84430FF2B04BF0023DB
:10B1000084F8443094F84530FF2B04BF002384F8C2
:10B11000453004F011FEA36B2BB93246294604F1E9
:10B12000240000F003FC2046BDE87040FFF7F1BCAE
:10B130002DE9F041044604F0F5FD314B314D1A681C
:10B14000314E01321A602A68002A4FD12C601B68E8
:10B15000012B25D12D48DFF8EC802D4F04F06CFF3A
:10B160002C4804F069FF2C4804F066FF2B4804F0DB
:10B1700063FF2B4804F060FF404604F05DFF384653
:10B1800004F05AFF274804F057FF274804F054FF03
:10B19000264804F051FF264BC3F80080254B1F6062
:10B1A000254A136801331360244AE3631168E36A94
:10B1B0008B4288BF1360154A142000FB0320211D19
:10B1C00004F048FF04F0B8FD33686BB12B68DA6A0D
:10B1D000E36A9A4208D21A4B4FF080525A6040BF3D
:10B1E000BFF34F8FBFF36F8FBDE8F0813368002B43
:10B1F000D6D12B68DA6AE36A9A4298BF2C60CFE70F
:10B200007C2900200C290020DC290020182900209E
:10B21000A82900202C2900204029002054290020A2
:10B2200068290020C8290020F4290020E0290020F6
:10B2300010290020142900208C29002090290020AA
:10B2400000ED00E094290020094B0A4A1B681268AF
:10B25000D06A50B9084A1268012A07D833B9074B97
:10B260001868074B1B68C01A70470020704700BF62
:10B27000902900200C29002018290020C029002036
:10B28000082A0020064A13681968064B19B94FF0BE
:10B29000FF321A6070471268D268D2685268F8E7C5
:10B2A00010290020C02900202DE9F047DDE909849C
:10B2B0004FEA82090D464A460646A521206B1F46E5
:10B2C00005F010F9226BA9F1040991446B1E29F0D5
:10B2D000070904F13402073513F8011F02F8011BB6
:10B2E000197809B1AB42F7D1089D042D28BF042578
:10B2F0004FF0000AC4E9115AE562201D84F83BA012
:10B3000004F0A5FEC5F1050504F1180004F09FFE48
:10B31000C4F84CA02461A561646284F850A03A4648
:10B320003146484604F0C6FC2060B8F1000F01D059
:10B33000C8F80040BDE8F08710B590F851300446D9
:10B340003BB9006BFFF773FB2046BDE81040FFF7E9
:10B350006EBB012BF9D010BDF8B5164B164E1D680B
:10B360000446306804300F4604F096FE631C3346F2
:10B3700007D137B131681148BDE8F840043104F015
:10B3800069BE1A682C19546007D30D4A10681968F1
:10B39000BDE8F840043104F068BE0A4A1068196834
:10B3A000043104F062FE084B1A68A24288BF1C6098
:10B3B000F8BD00BF082A00200C290020E029002049
:10B3C0001429002010290020C029002030B587B0A2
:10B3D000DDE90B547CB18DB12563022584F8515011
:10B3E00005AD01950A9D02940095FFF75DFF20468B
:10B3F000FFF79EFE059C204607B030BD2C46FAE7BD
:10B400002DE9F043074685B09000884616469946D8
:10B41000FFF7EEFA0546E8B15420FFF7E9FA0446D3
:10B42000A8B1002380F851300D9B056301930C9B5C
:10B430000290009332464B4641463846FFF734FFB0
:10B440002046FFF775FE012005B0BDE8F0832846D1
:10B45000FFF7EDFA4FF0FF30F6E7000037B504468E
:10B46000002833D01A4D2A6882422FD004F05AFCAB
:10B470006269184B9A4224D1A36A174A934220D09A
:10B48000FBB9211D0846019104F006FE134AE36A48
:10B4900010680199834288BF1360114A142000FB91
:10B4A000032004F0D7FD2B68E26ADB6A9A4208D3D6
:10B4B0000C4B4FF080525A6040BFBFF34F8FBFF329
:10B4C0006F8F03B0BDE8304004F036BC03B030BD30
:10B4D0000C290020E0290020C82900209029002004
:10B4E0001829002000ED00E010B588B0002407AA5C
:10B4F00006A905A8CDE9054400F082FF059B02934B
:10B50000069B079A0E490F48CDE900432346FFF7F3
:10B510005DFF0D4B186080B100F0C2FB01280CD11B
:10B52000402383F31188094B4FF0FF321A60084B18
:10B530001860084B1C6004F0CFFB08B010BD00BFC2
:10B54000D411020075B70100BC290020C0290020D9
:10B55000DC290020082A0020024A13680133136006
:10B56000704700BF88290020014B1868704700BF52
:10B57000082A0020024A136818441060704700BF70
:10B58000082A00202DE9F84F2E4B1B68002B53D1C1
:10B590002D4B1D6801351D605DB92C4A2C4B11687F
:10B5A000186810602B4A1960136801331360FFF7A5
:10B5B00069FE294F3B68AB424FF0000607D9274B85
:10B5C0001B68002B0CBF30460120BDE8F88FDFF868
:10B5D0007C80DFF89490DFF894A0D8F800301B68E6
:10B5E0001BB94FF0FF333B60E9E7D8F80030DB6868
:10B5F000DC6863689D42F6D304F1040B584604F0FE
:10B600004BFDA36A1BB104F1180004F045FDE36A89
:10B61000D9F800201420934200FB03A0594688BFAC
:10B62000C9F8003004F016FD0D4BE26A1B68DB6AB6
:10B630009A4228BF0126D0E70A4A136801331360F3
:10B640000026BCE788290020082A002010290020B5
:10B6500014290020C4290020C02900200C2A002021
:10B660000C2900208429002090290020182900207E
:10B67000F7B504F057FB2A4B1A68013A1A601C68A8
:10B680002CB1002404F058FB204603B0F0BD254B3C
:10B690001B68002BF5D0244D244E254F1EE0EB688F
:10B6A000DC6804F1180004F0F7FC211D0846019144
:10B6B00004F0F2FCE36A326801991420934200FB23
:10B6C000037088BF336004F0C5FC1A4BE26A1B6844
:10B6D000DB6A9A4202D3184B01221A602B68002BB6
:10B6E000DDD10CB1FFF7CEFD144D2C6844B1124EE4
:10B6F0000127FFF747FF00B13760013CF9D12C600B
:10B700000D4B1B68002BBCD00D4B4FF080525A6084
:10B7100040BFBFF34F8FBFF36F8F0124B2E700BF6D
:10B72000882900207C290020C82900209029002099
:10B73000182900200C2900200C2A00208429002030
:10B7400000ED00E008B548B9094B4FF080525A604F
:10B7500040BFBFF34F8FBFF36F8F08BDFFF7FCFEF5
:10B760000021FFF7F9FDFFF783FF0028ECD0F4E795
:10B7700000ED00E0F8B51B4C1B4F1C4D2368EBB9E6
:10B780001B4B1B68012B08D91A4B4FF080525A6093
:10B7900040BFBFF34F8FBFF36F8F00F008FEFFF77E
:10B7A00053FD0128E9D9FFF7D7FEFFF74DFD01282A
:10B7B00001D904F025FBFFF75BFFDEE704F0B2FAE6
:10B7C000FB68DE68301D04F067FC2B68013B2B60D2
:10B7D0002368013B236004F0AFFA3046FFF7ACFD6D
:10B7E000CCE700BF80290020F42900207C2900201C
:10B7F0001829002000ED00E0F8B5194B1A68194B24
:10B8000012B101221A60F8BD174C1A602268236831
:10B8100012681B6B9A4204D820682168343100F00A
:10B82000EDFD124E124B32684FF0140C1F460CFB0C
:10B8300002F158185D5885B1456808316D6845605A
:10B840000B449D4204BF6B684360142303FB0273E7
:10B850005B68DB6823603260D5E7013AE7E700BF49
:10B86000882900200C2A00200C2900209029002083
:10B870001829002070B504461F4E04F053FA04B98D
:10B880003468251D284604F007FCA36A1BB104F1A7
:10B89000180004F001FC29461848194D04F0DAFBA1
:10B8A00094F85030012B04BF002384F8503004F08A
:10B8B00043FA2A682AB104F035FAFFF7E3FC04F0F2
:10B8C0003BFA3368A3420AD12B684BB10D4B4FF0C2
:10B8D00080525A6040BFBFF34F8FBFF36F8F70BD70
:10B8E000064A1168084A1268914201D13360F6E7AE
:10B8F000BDE87040FFF780BF0C290020E029002040
:10B90000DC29002000ED00E07C29002010B5064B6A
:10B910000C461968183104F0A8FB20460121BDE847
:10B920001040FFF719BD00BF0C29002038B5084BA7
:10B930000D4619681446183104F08CFB002C214682
:10B940000CBF28464FF0FF30BDE83840FFF704BD7C
:10B950000C29002013B5C368DC6804F118010846FF
:10B96000019104F099FB134B01991B68FBB9211D50
:10B970000846019104F090FB0F4AE36A10680199B0
:10B98000834288BF13600D4A142000FB032004F09B
:10B9900061FB0B4BE26A1B68DB6A9A4285BF094B6D
:10B9A000012000201860FFF76DFC02B010BD0648B2
:10B9B000EDE700BF882900209029002018290020E9
:10B9C0000C2900200C2A0020C8290020034B1B68EA
:10B9D0000360034B1B684360704700BFC42900200D
:10B9E000082A002070B50C46054604F09BF90F4B61
:10B9F000196823685A1C10D00D482E6800686A68C0
:10BA0000864201D08A420FD9881A83420AD95B1A2A
:10BA1000134423602846FFF7D9FF002404F08CF973
:10BA2000204670BD002323600124F7E7082A002088
:10BA3000C4290020014B01221A6070470C2A002003
:10BA4000084B186860B9084B1B6853B9074B186856
:10BA5000074B1B68013B984214BF0120022070472E
:10BA600000207047C82900200C2A0020E02900206F
:10BA70007C290020054B1B6833B1054B1B68002B4C
:10BA80000CBF02200020704701207047DC290020F5
:10BA90008829002073B5044600282CD01C4AC36AAC
:10BAA0001168C96A8B42164629D28269194D002A4B
:10BAB000A1BF3268D26AC2F105028261142202FB80
:10BAC000035342699A4212D1011D0846019104F0C4
:10BAD000E3FA3368104ADB6A10680199E362834233
:10BAE0000BD8142000FB035004F0B4FA02E03368D2
:10BAF000DB6AC362012002B070BD1360F1E7136816
:10BB0000406CDC6AA0422CBF00200120F3E700BF9C
:10BB10000C290020182900209029002013B5044684
:10BB200010B9002002B010BD836CC16A426C013BA9
:10BB300091428364F5D0002BF3D1011D0846019199
:10BB400004F0AAFA636C0199E362C3F10502A261F1
:10BB5000064A1068834288BF1360054A142000FB20
:10BB6000032004F077FA0120DCE700BF90290020D1
:10BB70001829002037B5044668B3436C994238BF92
:10BB80001946C36A8B4226D0826C012A23D182696E
:10BB9000124DC162002A4FF0140202FB03534269A6
:10BBA000A4BFC1F1050181619A4214D1011D08466B
:10BBB000019104F071FA0A4AE36A1068019983421C
:10BBC0004FF0140000FB035088BF136003B0BDE8C2
:10BBD000304004F03FBA03B030BD00BF1829002048
:10BBE00090290020044B1A681AB119688A6C013236
:10BBF0008A641868704700BF0C290020F7B5114C03
:10BC000004F090F82568BDB90F4F104E384604F087
:10BC100013FA304604F010FA0D4B0E4A1F600E4B1B
:10BC200010211E6020200D4B0095FEF7E1FF2060E3
:10BC300010B10B49FFF72CFA03B0BDE8F04004F057
:10BC40007BB800BF942C0020182C00202C2C002046
:10BC5000102A0020182A0020142A0020442C00203A
:10BC6000D9110200914208B5416000610AD8D21A88
:10BC700083699A420DD2084B011D186804F0F5F94A
:10BC8000002008BD9A4201D2994202D2034B011D05
:10BC9000F3E70120F5E700BF142A0020102A002056
:10BCA00010B588B0FFF7AAFF0E4B18680024B8B192
:10BCB00007AA06A905A8CDE9054400F0ADFB059B40
:10BCC0000293069B019302230093079A06490748B3
:10BCD0002346FFF77BFB064B1860001B18BF0120B3
:10BCE00008B010BD942C0020DE110200D9BD010067
:10BCF000982C00202DE9F041804630200F46164652
:10BD00001D46FEF775FE044670B1FFF777FF069BF0
:10BD10006362C4E90676C4F800802562201D04F041
:10BD200096F9002384F82C302046BDE8F08100000D
:10BD30007FB50F4C0546206816461A4680B1052986
:10BD4000CDE9001602950DDCFFF794FE00230228D2
:10BD500008BF089A206818BF1A466946FEF784FF94
:10BD600004B070BD00236946FFF729F8F8E700BF6B
:10BD7000942C0020F0B5164D85B000272B681A686A
:10BD80002AB9144A11682960136005B0F0BDDB6858
:10BD9000DC681E68211D0846039104F07DF9636A82
:10BDA00020469847E3690399012BE7D1A3693344FF
:10BDB0009E4205D228686360246104F056F9DDE7ED
:10BDC00000230097324619462046FFF7B1FFD5E71A
:10BDD000102A0020142A00202DE9F04F664E89B069
:10BDE000B246002732681368002B4BD0D268D2F8D5
:10BDF00000B0624D0393FFF7AFFBFFF7B5FB2A6876
:10BE0000DFF88481039B90420446A9463CD2FFF7A9
:10BE1000B1FF2C60FFF72CFCD8F80000002204A929
:10BE2000FFF726F80028DDD0049B0698002B6ADB7C
:10BE3000069C6369002B6DD1FFF796FBD9F80030A3
:10BE40009842054601D2FFF795FF049BC9F80050C0
:10BE5000092BE1D801A252F823F000BF1DBF010059
:10BE60001DBF01001DBF010019BE010053BF01002D
:10BE700065BF01001DBF01001DBF010019BE01000B
:10BE800053BF01009B46B4E7286003B3834538D80D
:10BE9000FFF7EEFBDAF80030DB68DD68281D04F000
:10BEA000FBF8EB69012B0ED1A9695B462246594488
:10BEB0002846FFF7D7FE30B1002300975A461946AF
:10BEC0002846FFF735FF6B6A28469847A4E72C4BB6
:10BED0001B681A68B2FA82F25209D8F80000ABEB7C
:10BEE0000401FFF702F9FFF7C3FB002894D1254BAB
:10BEF0004FF080525A6040BFBFF34F8FBFF36F8F38
:10BF00008AE70022E9E7059B07999847049B002BE5
:10BF100082DB8DE7201D04F0BFF88DE7A169059B4A
:10BF20002A4619442046FFF79DFE00283FF474AFCF
:10BF3000636A20469847E369012B7FF46DAFA269DD
:10BF40000599009700230A4420461946FFF7F0FEA2
:10BF500062E70599A1612B462A4629442046FFF74E
:10BF600081FE59E794F82C30002B7FF455AF204622
:10BF7000FEF75DFD50E700BF102A0020402C002096
:10BF8000142A002000ED00E0942C002013B5044694
:10BF900003F0C8FE6069003818BF0120019003F06B
:10BFA000CBFE019802B010BD30B51C4D85B028689D
:10BFB0004FF0FF3203A9FEF75BFF0028F7D003988C
:10BFC000037A4468052B05D8DFE803F0030D10144D
:10BFD000191FA047039B186808B1FEF735FD0398A9
:10BFE000FEF732FDE3E7C068A047F3E7D0E90301BD
:10BFF000A047EFE7D0E90412C068A047EAE7D0E91C
:10C000000523D0E90301A047E4E7C3690093D0E921
:10C010000523D0E90301A047DCE700BFA02C0020E6
:10C020000B4B13B500220446042140201860FEF794
:10C03000F5FD084B08491860084B01930223009353
:10C04000A2B200230648FFF7DBF902B010BD00BF23
:10C050009C2C0020A02C0020E6110200A42C002023
:10C06000A9BF010073B500220421FEF7D7FD0446E5
:10C07000B0B1104D104E2868FFF7FCFB03F052FEE4
:10C080003068002201A9FEF7F3FE58B93068FFF7C7
:10C0900021F8346003F050FE2868FFF7DFF9012033
:10C0A00002B070BD0023642201A92046FEF7DCFD2A
:10C0B000E6E700BFA42C0020A02C002037B5174BCA
:10C0C00001905B68164CC3F308032068E3B10023BA
:10C0D0001A4601A9FEF773FE012813D0114D2868F6
:10C0E0004000FFF7BFFF68B12B6820685B002B6042
:10C0F0000A4B5B68C3F308035BB100231A4601A92E
:10C10000FEF75DFE03B030BD642201A9FEF7ACFD71
:10C11000E2E7642201A9FEF7A7FDF3E700ED00E0E6
:10C12000A02C00209C2C00202DE9F0479DF82060D9
:10C130008046894692461F46DEB1B0000C30FEF7BD
:10C1400067FC0025044690B1C0E9005A0672B8F1B8
:10C15000000F2ED0B9F1000F2BD04846FEF758FC47
:10C160008246206038B92046FEF76EFC5046BDE896
:10C17000F0871020E3E74A46414604F08BF9B6B950
:10C180002046FFF79BFF0120F1E757F82230984542
:10C1900004BF236847F822300132D3B29E42F4D85C
:10C1A000B200394604F10C0004F074F9E8E72A46BD
:10C1B000F3E7002EE4D0F3E710B5064B0360044626
:10C1C000406908B1FEF786FF606808B1FEF73CFCE5
:10C1D000204610BDF811020010B50446FFF7ECFF31
:10C1E0002046182100F0E6F8204610BD08B54FF0B3
:10C1F000FF314069FEF7B6FE003818BF012008BDC8
:10C2000008B500231A4619464069FEF72DFD00388F
:10C2100018BF012008BD000010B58172054C0460F4
:10C22000002101824160C18141610281C17281812D
:10C2300010BD00BFF811020010B50446837A0089D2
:10C240005843FEF7E5FB60600120FEF7A6FD606144
:10C2500010BD0181FFF7F0BF10B50446FFF7C6FF20
:10C260000023A3812046E3812382FFF7C9FF10BD8D
:10C2700010B5C389827A044640689BB202FB030072
:10C2800004F008F9E38921899BB20133B3FBF1F291
:10C2900001FB12339BB2E381A3899BB2994215BF84
:10C2A000A389E38901339BB216BF9BB22382A3818A
:10C2B00010BDF8B504460E461546CAB1FFF796FF05
:10C2C000E37A33B9A28923899B1A9BB29D4228BF86
:10C2D0001D460027BBB29D4207D931462046FFF7D5
:10C2E000C7FFA37A01371E44F4E72046FFF788FF13
:10C2F0002846F8BD10B504460846238AA27A61682C
:10C300009BB202FB031104F0C5F8238A21899BB27A
:10C310000133B3FBF1F201FB12339BB22382A389F9
:10C32000013B9BB2A38110BDF8B505460E461446ED
:10C33000C2B1FFF75BFFAB899BB2A34238BFAC89A8
:10C340004FF0000738BFA4B2BBB29C4207D93146B8
:10C350002846FFF7CFFFAB7A01371E44F4E72846A3
:10C36000FFF74EFF2046F8BD38B504461046A389B6
:10C370009BB29BB1A3899BB28B420FD9238A25899B
:10C38000A27A11FA83F1B1FBF5F305FB131163688F
:10C3900002FB013104F07EF8012038BD0020FCE7EB
:10C3A00080024FF47A73B0FBF3F0FFF7CBB970471C
:10C3B000FEF72EBBFEF748BB08B508490A681318FC
:10C3C0000748834207D904F009F80C2303604FF0B3
:10C3D000FF32104608BD0B60FBE700BF3C23002086
:10C3E00000F80020044B4FF080525A6040BFBFF36A
:10C3F0004F8FBFF36F8F704700ED00E070477047BD
:10C40000034B0360034B0B6064231360704700BF52
:10C41000A82C0020FC2C0020034B0360034B0B6076
:10C420004FF48073136070478C2E0020E02E0020A4
:10C430004FF08043154AD3F800141160D3F800146C
:10C44000D3F800240A43C3F80024114AD2F8401557
:10C45000104A11600122C3F818259A600E4B4FF460
:10C460000031C3F8801003F1C04303F53C534FF48F
:10C470008031C3F84813C3F808135A609A604FF02C
:10C48000A0434FF0FF32C3F808257047E032002088
:10C4900000A00040E432002000E100E01F2815D891
:10C4A000394B53F820300E2910D8DFE801F0083658
:10C4B000101C1622282F3C434A51585F660003F592
:10C4C000E0734FF0A042002142F82310704703F5BB
:10C4D000E0734FF0A0420C21F6E72C4903F5E0731E
:10C4E0004FF0A042F0E703F5E0734FF0A0420421C3
:10C4F000EAE7274903F5E0734FF0A042E4E703F5CC
:10C50000E0734FF0A0424FF40031DDE703F5E07334
:10C510004FF0A0424FF44031D6E703F5E0734FF0FF
:10C52000A0420321D0E703F5E0734FF0A04240F2B0
:10C530000311C9E703F5E0734FF0A04240F2032175
:10C54000C2E703F5E0734FF0A04240F20331BBE7CE
:10C5500003F5E0734FF0A04240F20341B4E703F566
:10C56000E0734FF0A04240F20351ADE703F5E073F2
:10C570004FF0A04240F20361A6E703F5E0734FF0ED
:10C58000A04240F203719FE7D41202000C000300A6
:10C59000040002001F280CD8064B53F8202001236A
:10C5A00093404FF0A04211B9C2F80C357047C2F861
:10C5B00008357047D41202001F2813D80A4B53F8CD
:10C5C0002020012393404FF0A042D2F814150B42D3
:10C5D00014BFD2F80425D2F81025134214BF01204D
:10C5E0000020704700207047D412020010B50446A6
:10C5F000FFF7E2FFC0F101012046BDE81040FFF760
:10C60000C9BF00000B4B1B685A1C05BF0A4B0B4AE5
:10C610000B4A10680ABF1B781068C0F30310062B82
:10C6200005D1033803288CBF00200120704700206B
:10C63000704700BF30010010E00F00F0E80F00F07D
:10C6400034010010074B1B78062B09D1064B1B68E1
:10C65000C3F30313033B032B02D8044AD05C704797
:10C6600000207047E00F00F0E80F00F00812020011
:10C6700008B5FFF7C7FF28B1664B674A1B68C3F3CD
:10C6800004231360FFF7DEFF10B1644B644A1A60A5
:10C69000FFF7B8FF28B1634B634A1B68C3F342330B
:10C6A0001360FFF7CFFF20B1604AD36823F0807397
:10C6B000D360FFF7A7FF40B14FF080430022C3F8DB
:10C6C0000C21C3F81021C3F83825FFF7BBFF10B1C8
:10C6D000574B03221A60FFF7B5FF40B1554B0522B7
:10C6E0001A6001229A6700229A603F225A60524BD8
:10C6F0001A68511C0BBF514B514B1A781B6802BF73
:10C7000008331B68C3F30313062A4DD1033B032BE5
:10C710004AD84C4AD35C002B46D04FF080524A4B4B
:10C72000D2F80414C3F82015D2F80814C3F824155D
:10C73000D2F80C14C3F82815D2F81014C3F82C152D
:10C74000D2F81414C3F83015D2F81814C3F83415FD
:10C75000D2F81C14C3F84015D2F82014C3F84415BD
:10C76000D2F82414C3F84815D2F82814C3F84C158D
:10C77000D2F82C14C3F85015D2F83014C3F854155D
:10C78000D2F83414C3F86015D2F83814C3F864151D
:10C79000D2F83C14C3F86815D2F84014C3F86C15ED
:10C7A000D2F84424C3F87025FFF72CFF28B1274B9B
:10C7B000274A1B6803F04F031360FFF723FF48B1BC
:10C7C0004FF08043D3F80024D20744BF6FF001023A
:10C7D000C3F80024184B1B68062B0CD1184B1B68A0
:10C7E000033B032B07D81B4AD35C23B11A4A1368B7
:10C7F00043F480631360194AD2F8883043F470031D
:10C80000C2F88830BFF34F8FBFF36F8F144B154AB8
:10C810001A6008BD240300104035014074C0074071
:10C820000DF0ADBA440200103C050040F0ED00E010
:10C83000A00500401056004030010010E00F00F04D
:10C84000340100100012020000C000405802001025
:10C85000E40E0040041202003C17004000ED00E02E
:10C86000402300200090D003704710B5A421044657
:10C87000FFF7A0FD204610BD4FF0FF31FEF772BB61
:10C8800000231A461946FEF7EFB9000038B50A4BE7
:10C8900004460D46442240F80C3B002103F022FEE2
:10C8A0000023A560237104F154010120FEF760FA12
:10C8B0002065204638BD00BF1412020070B5044642
:10C8C000006D0E46FFF7D8FF25795DB906B1A66069
:10C8D000A16839B104F10C0001F070F8B0FA80F5EC
:10C8E0006D092571206DFFF7CBFF284670BDF8B5A7
:10C8F0000546006DFFF7C0FF2F7905F10C067FB9E3
:10C90000A968304601F04CFF044688B987B1A96890
:10C91000304601F053F8044650B901232B7107E06B
:10C9200000232B71304601F08BF804460028E7D035
:10C93000286DFFF7A5FFB4FA84F04009F8BD30B5C3
:10C94000C5B00446006D0191FFF796FF019902AA58
:10C9500004F10C0000F0F6FF0546206DFFF790FF94
:10C96000B5FA85F0400945B030BD2DE9F0470B78A8
:10C9700000AF2F2B0646006D0D460CBF4C1C0C461D
:10C98000FFF77AFF4FF0000820462F2103F09BFEAF
:10C99000044658B3421B02F1080323F00703E9469B
:10C9A000ADEB030D6B46EA4603F8018B0DEB02017C
:10C9B000C81A002802DB03F8018BF9E72946504624
:10C9C00003F068FD514606F10C0001F081FF50B103
:10C9D000113008D00024CD46306DFFF751FF2046BE
:10C9E000BD46BDE8F0870134CD46CDE7294606F1C6
:10C9F0000C0001F06DFF044628B110F1110F14BFB7
:10CA000000240124E8E70124E6E737B50446006D79
:10CA10000191FFF731FF019904F10C0002F055F884
:10CA20000546206DFFF72CFFB5FA85F0400903B0ED
:10CA300030BD07B503688DF807105B6801220DF162
:10CA40000701984703B05DF804FB4FF0FF31FEF794
:10CA500089BA00231A461946FEF706B937B501927E
:10CA600002690446106D0D46FFF7EFFF227D019B22
:10CA700072B92069A1692A460C3001F053F920EA05
:10CA8000E0752369186DFFF7E4FF284603B030BD59
:10CA90000025F6E773B503690446186DFFF7D5FF67
:10CAA000257D35BB2069A1690C3000F03FFF0646AB
:10CAB0002069A1698DF8075001230DF107020C30A0
:10CAC00001F0C4FA00282069A169C8BF9DF8075089
:10CAD0004FF00003324600F10C00D8BF4FF0FF3595
:10CAE00001F018FB2369186DFFF7B3FF284602B069
:10CAF00070BD4FF0FF35F5E738B503690446186D92
:10CB0000FFF7A3FF237D8BB92069A1690C3000F0EA
:10CB10000FFF05462069A1690C3000F007FF2D1AB0
:10CB20002369186DFFF795FF284638BD0025F7E704
:10CB300010B503690446186DFFF787FF237D23B9FD
:10CB40002069A1690C3001F0F3FC2369BDE81040B5
:10CB5000186DFFF77EBF000010B500224FF47A7405
:10CB6000C0E90124044C0460C0E906220161027599
:10CB700080F8202010BD00BF2C1202002DE9F041EA
:10CB800004460E46154662B1012A21D140F203182F
:10CB90003820FDF73DFF0146A06128B90020BDE81F
:10CBA000F0814FF00108F3E727693246434607F169
:10CBB0000C0001F083FF02460028EFD1012D05D1C2
:10CBC0002069A16902230C3001F0A4FA0023237527
:10CBD0000120E4E770B504462C200E46FDF718FF4F
:10CBE0000146A06108B9002070BD206932460C30B2
:10CBF00000F000FE0028F6D101252575304603F02F
:10CC000092FD2844FDF704FF3146E06103F072FD18
:10CC10002846E9E737B5019202690446106D0D46D2
:10CC2000FFF713FF227D019B6AB92069A1692A469B
:10CC30000C3001F00BFA05462369186DFFF709FF68
:10CC4000284603B030BD0025F6E707B501220DF1F7
:10CC50000701FFF7DFFF0028CCBF9DF807004FF06A
:10CC6000FF3003B05DF804FB37B50369019104465A
:10CC7000186DFFF7EAFE237D019A6BB92069A1695F
:10CC80000C3001F047FAC543ED0F2369186DFFF72B
:10CC9000E0FE284603B030BD0025F6E738B503694D
:10CCA0000446186DFFF7D1FE237D5BB92069A169A9
:10CCB0000C3000F03BFE05462369186DFFF7C9FEF6
:10CCC000284638BD0025F7E738B503690446186DD6
:10CCD000FFF7BBFE237D5BB92069A1690C3000F032
:10CCE00027FE05462369186DFFF7B3FE284638BDB9
:10CCF0000025F7E738B58169044679B10069257DDB
:10CD00000C3065B100F09EFDA069FDF79DFEE06965
:10CD10000025A56108B1FDF797FEE56138BD01F07A
:10CD200041FCA069FDF790FEA561F7E710B5036926
:10CD30000446186DFFF789FE2046FFF7DBFF2369E5
:10CD4000BDE81040186DFFF784BE70B58369C2B0AE
:10CD500005460E4614460BB1FFF7CCFF28696A461C
:10CD600031460C3000F0EEFDE0B99DF80030112B9B
:10CD700005D1224631462846FFF700FF03E0314641
:10CD80002846FFF727FF044670B12F21304603F0F5
:10CD9000E5FC203500B1461CFF223146284603F051
:10CDA000CAFC02E0023003D00024204642B070BD2D
:10CDB000012CF9D1DDE737B503690446186DCDE9DB
:10CDC0000021FFF742FEDDE900212046FFF7BDFF0D
:10CDD00023690546186DFFF73CFE284603B030BDB9
:10CDE00037B504460D4619460192FFF7B5FE019A84
:10CDF00029462046FFF7DFFF204603B030BD80699B
:10CE0000003818BF012070472DE9F043C3B00B690B
:10CE10000C4600AF0646186D9046FFF716FE2169D6
:10CE20003046FFF799FE237D002B3FD0244D20692B
:10CE3000A1693A460C3000F013FD012836D107F104
:10CE40000801284603F04CFC0028F0D01D4807F1EB
:10CE5000080103F045FC0028E9D0E06903F063FC19
:10CE6000054607F1080003F05EFC0544093525F08E
:10CE70000705E946ADEB050DE169684603F03AFCAC
:10CE8000E3691A782F2A6D4601D15B781BB10E49F0
:10CE9000284603F009FC07F10801284603F004FCCA
:10CEA000424629463046FFF750FFCD462369186DAC
:10CEB000FFF7CFFD304607F58677BD46BDE8F08326
:10CEC0001D1202001C1202001F12020010B503689E
:10CED0001A6AC36AD31A1944B1FBF2F302FB1311A5
:10CEE000036B8B420BD94C09C26B012301F01F016C
:10CEF00003FA01F152F824300B4342F824300020A9
:10CF000010BD0368013304D04068431C58425841A7
:10CF100070470120704710B50B6804689C4209D027
:10CF200040684A68904205D0944203D0181A18BF4E
:10CF3000012010BD0020FCE743798279C0790433D9
:10CF400013441844704710B503689B6A044613B92C
:10CF5000C069FDF76CFD2368DB6A13B9A06AFDF7B1
:10CF600066FD23681B6B23B9E06BBDE81040FDF73D
:10CF70005EBD10BD2DE9F04F85B0DDE90E46109D78
:10CF800082460F46914698460DB9284667E0DAF882
:10CF90000000B9F1000F1ED0D9F8003043451AD176
:10CFA000D9F80410A14216D8826901EB020B5C4546
:10CFB00011D2ABEB040BAB45D9F8083028BFAB4618
:10CFC000611A30465A46194403F064FA5E445C44E0
:10CFD000A5EB0B05D8E73A68436990450ED179680F
:10CFE0008C420BD301EB030B5C4507D2ABEB040B7C
:10CFF000AB45BB6828BFAB46611AE2E7B4FBF3F26E
:10D0000003FB1242AAB99D4213D3B5FBF3F203FB13
:10D01000125BA5EB0B0300930393436822461D4666
:10D0200041463346A847D0B9039B5D461E441C4485
:10D03000AAE7C7F80080DAF800305B69B4FBF3F2C6
:10D0400003FB1242A21A7A60DAF8000043690093E7
:10D05000D0F804B0BB684146D847002894D005B04A
:10D06000BDE8F08F1FB5069C0092CDE90134002287
:10D070000B4600F11401FFF77DFF04B010BD10B5A1
:10D080000C468269A068FF2103F02CFA4FF0FF33B1
:10D09000236010BD10B501608B6A0446D3B1C36133
:10D0A0002368DA6A12B3A262206804F12001FFF754
:10D0B000E6FF4FF0FF33636123681A6BEAB1E26366
:10D0C00000204FF0FF33C4E90133C4E9030084F8C2
:10D0D000400010BD4869FDF78BFCE0610028DFD1FE
:10D0E0002046FFF730FF6FF00B00F2E79869FDF77D
:10D0F0007FFCA0620028D7D1F2E7586AC008FDF78C
:10D1000077FCE0630028DBD1EAE7F8B5C5690E6873
:10D11000083DAE420F4613D3B6FBF5F0013803F0DD
:10D1200047FF841CA6EB8404B4FBF5F4204603F00F
:10D130003FFFA6EB800004FB15053D602046F8BDCF
:10D140000020FCE72DE9F04F8BB09146149A05932F
:10D15000013A074688460068DDF858A0079207A9FB
:10D16000FFF7D3FF059B05460DF1200B19460593EC
:10D170005046159B9847024618BB15B305F00106AB
:10D18000C6F10204A100CDE901B100904A46059B19
:10D1900041463846FFF7EEFE024690B9013C944204
:10D1A00007DC0AAB03EB8404023E54F8083C354428
:10D1B000DCE70899159B5046984701220028EED0DD
:10D1C000024610460BB0BDE8F08F2DE9F04F89B054
:10D1D0000646DDF84C90059288464BB94FF0FF3279
:10D1E000C9F80020149A0020136009B0BDE8F08F40
:10D1F000013B07A900680793FFF787FF12A90546BF
:10D200003068FFF782FF4FF0040A07460DF1140B58
:10D21000AF42059B03D3C9F80030129BE2E7EC1B39
:10D22000B4FA84F495FAA5F2B2FA82F2C4F11F04BA
:10D23000944228BF1446A2000092CDE901BA002210
:10D2400041463046FFF796FE0028CED1012303FA6F
:10D2500004F42D1BDCE72DE9F04786B005460F46A8
:10D26000144600F11409D6184FF0010A0DF1170801
:10D27000A64203D1002006B0BDE8F0870094CDE9B6
:10D28000018A3B46002249462846FFF773FE0134D7
:10D290000028F0D10E980122414601F055FCE7E745
:10D2A0002DE9F04F8BB01368049300265368059363
:10D2B00007460C46B0460DF1100B06AD4FF0100AB4
:10D2C0005BF82690CDF800A02B4600224946384650
:10D2D000FFF7C8FE70B110F1340F06D146B1B8F1B6
:10D2E000000F14BF00206FF033000BB0BDE8F08FCB
:10D2F0000126E5E7B8F1000F04D0E269069B9B1A0E
:10D30000002BEBDB079B23F00043132BE6D93A6895
:10D31000D2699342E2D84FF0FF3303A81022294686
:10D32000039301F011FC079B03A823F00043009036
:10D33000103B102249463846FFF78DFF0028CAD11E
:10D34000039B002BCAD10AAA86F0010302EB8303D8
:10D3500004F11C0C53F8183CC4F80490C4E9023AD8
:10D3600095E80F004FF001088CE80F00B6E72DE9B3
:10D37000F34106460C46154601F124081027226A9F
:10D38000E16822F0004301F10C00043B984217D8F9
:10D390000C2300930A462B1D61683046FFF762FE9E
:10D3A000014690B9E6682E602846FFF7C5FD304477
:10D3B000E0602846FFF7C0FDA3691844A06104E0BF
:10D3C000002A06DB29606FF00101084602B0BDE8C3
:10D3D000F081214642463046FFF762FF01460028B1
:10D3E000F3D1A369E7601433A361C8E770B50546BC
:10D3F00092B004300E46FFF784FD68BB0190012314
:10D4000001AA07A928460293FFF74AFF044618B964
:10D4100010A8FFF776FD10B1204612B070BD10AA1B
:10D4200007A92846FFF73CFF38B903AA07A92846F1
:10D43000FFF79DFF18B1831CEAD00446ECE79DF985
:10D440001030002BF1DB0822314605A803F014F858
:10D450000028EAD10124DFE70024DDE72DE9F843C5
:10D4600014461D4600220123C4E9092306460F463F
:10D4700004F1240805F108094046FFF742FD08B110
:10D4800000200DE0424621463046FFF709FF38B93B
:10D490002A4621463046FFF76AFF18B1831CEBD0BD
:10D4A000BDE8F8832B7903F07003202BF0D13946C7
:10D4B0004846FFF730FD0028EAD10120F0E7F7B534
:10D4C000044604300E461546FFF71BFD10B1002040
:10D4D00003B0F0BD009001236A462946204601931F
:10D4E000FFF7DEFE0028F3D105F124073846FFF7E9
:10D4F00008FD0028EBD131463846FFF70CFD38B166
:10D500003A4629462046FFF7CBFE0028EED0DFE75B
:10D510000120DDE72DE9F04F87B0DDE91045064633
:10D520008B46174625444FF001090DF1170AA3EB6E
:10D530000408AC4201D1012011E008EB0403009380
:10D54000CDE901A93B46002259463046FFF712FDBE
:10D5500028B914F8013B9DF817209A42E9D007B08A
:10D56000BDE8F08FF7B50C4609684B1C0646174618
:10D5700021D00068836900938568D4E90123A84716
:10D58000054620B937B930682146FFF778FD2846AF
:10D5900003B0F0BD33689B690193A36800933946DB
:10D5A000D4E900233046FFF7B5FF002805DBEAD1B8
:10D5B0006FF03305EBE70025E9E70546E7E72DE9DE
:10D5C000F04F85B0DDE90E48109D07460E469246A5
:10D5D00099460DB928462AE0326838684A45836979
:10D5E00028D17168A14225D801EB030BA34521D9AD
:10D5F000ABEB040BB368AB4528BFAB46601A5A4689
:10D600004146184402F046FF3B689A695C44B4FB0B
:10D61000F2F302FB1343D844A5EB0B05002BD8D142
:10D62000524631463846FFF79DFF0028D1D005B05D
:10D63000BDE8F08FB4FBF3F203FB124242BB9D4204
:10D6400026D3B5FBF3F203FB125BA5EB0B030093B0
:10D650000393836822461D4649464346A84700284F
:10D66000E5D1BAF1000F04D1039B5D4698441C44F8
:10D67000AFE7039B4A46CDE900835146234638462F
:10D68000FFF748FF0028D2DBEED16FF03300CEE782
:10D69000C6F800903B689A69B4FBF2F302FB1343AF
:10D6A000E31A736095E700002DE9F04F2DED028B32
:10D6B00085B01D68029340F622035360436893606F
:10D6C0008368DFF82C91D36008EE101A06461446E2
:10D6D0004946284603F056F82F184946384603F0C5
:10D6E00011F80128804607EB000523D13E49024688
:10D6F000384602F0C1FE0028EAD0AA464FF0010BDE
:10D700004946504603F03EF882444946504602F0EE
:10D71000F9FF0246B8B1022811D1039033495046AF
:10D7200002F0AAFE039A50B9BBF1010B09D10AF12C
:10D730000205CDE70228E0D12C490246D8E70BF1DB
:10D74000010B9244DCE7387800283FD0029B1F6031
:10D750002379222B44D104F1080A18EE101A5246FC
:10D760003046FFF79DFD88BB06F1140B18EE101A2A
:10D7700022463046FFF7FBFD40BB237903F07F03D1
:10D78000112B01D0222BF1D1E3794345EED123684F
:10D79000627904331344A279CDE90078134418EE7A
:10D7A000102A594652683046FFF7B4FE00280DDBB8
:10D7B000DCD094F90430002B8ADA51463046FFF76A
:10D7C00015FE002807D001DB6FF0010005B0BDECAD
:10D7D000028BBDE8F08F237903F07F03237177E795
:10D7E0006FF01300F2E700BF1D1202001C120200CE
:10D7F0001F12020030B543684B6087B08368019206
:10D800008B6002AA01AB05460C46FFF74DFFA0B99D
:10D810009DF80C30222B12D104AA21462846FFF78E
:10D820003FFD50B963682361A36863610E23A36160
:10D830001023E3602B6923602C6107B030BD6FF0CB
:10D840001300FAE7036900F110021BB18B4203D108
:10D850001B681360002070471A461B68F5E700003C
:10D8600070B50D46144686B006464FF4847200210A
:10D87000204602F037FEAB690E2B0CD12046222346
:10D8800000F8083B274902F035FFAB690133AB6173
:10D89000012006B070BD0F2B05D12046222300F8D1
:10D8A000083B2149EFE702AA29463046FFF75FFD12
:10D8B00018B1821C08BF0020EBE79DF80C3003F084
:10D8C0007F02112A01D0222AEDD11B060CD504A912
:10D8D0003046FFF78BFD0028DBDBE4D19DF80C30F0
:10D8E00003F07F038DF80C309DF80C302370112B62
:10D8F00008BF059B029A08BF63609DF80D309DF834
:10D900000E1004321A449DF80F3000930A4404F1BB
:10D91000080369683046FFF7A5FB002808BF01200F
:10D92000B7E700BF1D1202001C120200086A704710
:10D93000CB6948699B0303D50B6A984238BF1846E8
:10D940007047000070B594B01546039103AB05AA6B
:10D9500009A90646FFF7A8FE0446C0B901464FF4E0
:10D960008472284602F0BEFD9DF818302B70112BF2
:10D9700004BF089B6B60311D07A8FFF7CCFA05F1C7
:10D980000803044630B90C49184602F0B3FE20469D
:10D9900014B070BD059A9DF819109DF81B000090F9
:10D9A00004320A449DF81A1030460A440A99FFF7D7
:10D9B00059FB0446EBE700BF1F12020030B599B0D7
:10D9C0000546FFF767FB044658BBC5E90B002B680B
:10D9D00068631B6AAB630290012302AA0DA9284663
:10D9E0000393FFF75DFC044600BB202300930E99D0
:10D9F00005AB10222846FFF735FB0446B0B9069B5D
:10DA00006B60079B0D49AB6008220BA802F034FD48
:10DA1000044648B90A9B1A0C012A0BD19BB2012B70
:10DA200008D8204619B030BD6FF033042846FFF700
:10DA30008AFAF6E76FF01504F8E700BF4812020013
:10DA400008B5FFF780FA002008BD2DE9F04306462F
:10DA500097B004300F469046FFF753FA00287CD168
:10DA600001230590069305994046B847044610BB2C
:10DA700006994046B8470446E8B905AA0BA93046BE
:10DA8000FFF70EFC0446B0B90C25139B0E9A23F049
:10DA9000004302F10C01043B994210D9149B0593F9
:10DAA00005A8159B0693FFF72CFA0028DBD0F56834
:10DAB00006F114094DBB204617B0BDE8F0830C9960
:10DAC000009508AB3046FFF7CDFA0146002842D159
:10DAD00007A8FFF731FA0E9B18449DF820300E90EE
:10DAE00003F07003102BD0D10A9B002BCCD00093F5
:10DAF0000A46CDE90178099B06F114013046FFF78B
:10DB000021FB0028C0D00446D5E7EB69DA0312D424
:10DB1000EB699B030DD52B6A5BB1CDE901780093CE
:10DB20006B6A05F12C0249463046FFF70BFB0028D3
:10DB3000E9D12D68BEE76B69002BE9D0CDE901780A
:10DB400000932B6905F12C0249463046FFF7FAFA9B
:10DB50000028DDD0D7E70446ADE70024ABE700009E
:10DB6000F8B52E4E04460D460127226BD4E90D135D
:10DB700091421FD1002B4DD02068E16AD0F820C01F
:10DB80000A44B2FBFCF10CFB1122E262426A9A42A7
:10DB900094BF2263236300216163426AE06BD20871
:10DBA00002F0A0FC224631462046FFF74EFF002837
:10DBB000DBD026E0481C6063013BE06BA3634FEAC7
:10DBC000511C01F01F0350F82C0007FA03F3034225
:10DBD000CCD1E36A194423681A6AB1FBF2F302FB61
:10DBE00013112960266B0125636BB34210D0E16BE2
:10DBF0005A0903F01F0051F8222005FA00F01040E6
:10DC000000D1F8BD01336363A36B013BA363EBE772
:10DC10000020F6E76FF01B00F3E700BFCDCE010058
:10DC200073B50C4604310646FFF79AFF0546F0B976
:10DC300004F108013046FFF793FF0546B8B9042305
:10DC400000930246616804F11C033046FFF70AFAAC
:10DC500010B110F1340F0DD1E3690133E3611422E7
:10DC60004FF0FF33C4E90823A3621023E360284682
:10DC700002B070BD0546FAE72DE9F04F044687B0C3
:10DC80000E4600F1140A05A92046FFF769FF054674
:10DC900048B920680599C3689847054600283BD0D5
:10DCA00010F1340FEFD0284607B0BDE8F08F0DF12A
:10DCB0001307CDE90087736ACDF808905A4651469C
:10DCC0002046FFF757F970B9CDE90179059BCDF8EA
:10DCD0000080524604F120012046FFF770FC20B17D
:10DCE00010F1340FCFD00546DDE708F10108B36A23
:10DCF0004345DCD82368A16A9A69706B02F0CAFBBD
:10DD0000236AF362636A3363206804F12001FFF73A
:10DD1000B6F9059B7362C6E7804606F12C0B4FF0FF
:10DD20000109E4E72DE9F04F8DB093460793CB69E5
:10DD300003F00302012A05460C4600F01A815E0337
:10DD400010D4E669320516D416F4003619D0DDF881
:10DD50001C90E369B9F1000F26D123F40023079A40
:10DD6000E36104E000F008F902460028E9D010461B
:10DD70000DB0BDE8F08F6269216A914238BF22621E
:10DD8000E2E7276A63699F42E1D923620BAA012374
:10DD9000214628468DF82C60FFF7C4FF021EE6DB03
:10DDA000236A9F42F2D8D2E79B0304F12C0620D5C8
:10DDB0002B68A26ADB699A4241D12B681B6AAB636C
:10DDC000D4E90832CDE9092305F1140A0BA9284644
:10DDD000FFF7C6FE0246F8B928680B99C368984752
:10DDE000024618B312F1340F16D14FF0FF332B62F5
:10DDF000ECE7236A002BE0D004F128020292013BF9
:10DE000004F12402019200933146D4E90423284608
:10DE1000FFF7DBF9024620B1E36943F40023E36135
:10DE2000A5E728683146FFF72AF9C6E70A9B3BBBFE
:10DE30000B9A6262A362E36943F40033E361A8468C
:10DE400058F8143BDF69A36AFF1A4F4528BF4F46B5
:10DE5000A36A00934246CDE901B7636A314628467A
:10DE6000FFF7ADFB0246002876D010F1340FD3D176
:10DE700021462846FFF700FF02460028E8D0CBE7FE
:10DE8000013B04900AA928680A93FFF73EF9296824
:10DE90000A9BC969049A01338B420A934AD1013023
:10DEA00090FAA0F3B3FA83F30593013306939046F7
:10DEB00009AF4FEA880304930423CDE90173049B5F
:10DEC000009352460B9B31462846FFF778FB0246EB
:10DED000002887D1059B434530D1069B08F10108F6
:10DEE0004345E6D80B9B6362069B9B00A2E7012398
:10DEF000CDE901730022099BCDF8008051462846E8
:10DF0000FFF738F80246002886D10123CDE90173D6
:10DF100052460B9BCDF8008031462846FFF74FFB59
:10DF2000024600287FF45EAF08F101080A9B98457D
:10DF3000DDD37DE790460DF12307F7E70423CDE914
:10DF40000173049B00935146099B2846FFF712F882
:10DF500002460028C1D05FE7236A3B442362A36ADC
:10DF60003B44A3622B681B6AAB63BB44A9EB070964
:10DF7000EFE66FF00802FAE62DE9F041CB695A03AB
:10DF800044BF23F48023CB61CB6948BF4FF0FF32FD
:10DF9000054648BFCA6213F4003090B00C462CD03E
:10DFA0000F6A2C22002102A805F1140602F09AFA49
:10DFB0002369069396E80700636907930123CDE977
:10DFC000093710AB03E907004FF0FF336B61984648
:10DFD000226A63699A4213D304F12C0832464146FF
:10DFE0002846FFF7BFFA28B310F1340F05D12146B8
:10DFF0002846FFF741FE0028F0D010B0BDE8F081C0
:10E0000001230DF1070202A9284600F01FF800289D
:10E01000F3DB01230DF1070221462846FFF782FEBC
:10E020000028EADB6B6901331CBFCDF83480C5F8EA
:10E030001480CDE7636A2361236A6361E36923F493
:10E04000003343F48033C4E90737D6E72DE9F04FB6
:10E050001D46CB69904603F00302022A87B00746AB
:10E060000C4654D09A0305D4266A6269964208D3B6
:10E07000002003E0FFF780FF0028F5D007B0BDE8DF
:10E08000F08F961BAE4228BF2E46B14604F12C01FC
:10E0900004F1280A04F1240BB9F1000F01D1304634
:10E0A000ECE7E3695B0304D53B68A26ADB699A424B
:10E0B00010D1236A0093CDE901BAD4E9042338468C
:10E0C0000591FFF782F80028D8D1E369059943F458
:10E0D0008023E3613A68A36AD5690093ED1A4D4540
:10E0E00028BF4D46CDE90185636A05910022384677
:10E0F000FEF740FF0028C1D1236A05992B44236213
:10E10000A36A2B44A362A844A9EB0509C4E76FF0F6
:10E110000800B3E770B50D4614461E46FFF72CFF06
:10E1200068B90EB92C6209E0012E09D1002C2A6AC7
:10E1300002DA634293420DD822442A62286A70BDF3
:10E14000022EFBD1002C6A6902DA63429A4201D3A3
:10E150001444E7E76FF01500F1E7F0B50127061D5D
:10E1600080F84070A7B004463046FEF7CAFE054668
:10E17000002878D101462C2205A802F0B3F94FF00F
:10E1800000432822294610A80D9302F0ABF91A97F4
:10E1900023681B6A9D4202D36FF033001BE019A86D
:10E1A000FEF7AFFE00285ED119AA10A92046FFF79E
:10E1B00077F880B90D9B002B38DB3046FEF7A1FEC7
:10E1C00058B1199B0E931A9B0F9300231A4605A969
:10E1D000204600F04AF827B0F0BD01AB1BAA0EA9FB
:10E1E0002046FFF73BF90028F5DBEAD0039A0E99A9
:10E1F000049B0F988A4201D1984217D0824201D1E4
:10E20000994213D00E92DFE79DF97030002B0DDAA2
:10E210001DA92046FFF7EAF80028DCDB16D01BAA70
:10E2200010A9204600F048FA0028D4D11BAA10A952
:10E230002046FFF79CF80028E6D0831CCBD12C2287
:10E2400010A905A802F026F90135A1E79DF8703064
:10E2500003F07F038DF870301BAA034610A92046F7
:10E2600000F04DF9E0E70020B5E72DE9F04F2DED86
:10E27000028B9BB00D460793CB6905920133CB61AE
:10E280000B1DD1E901140646C5E90141079808EEC6
:10E29000103A02EB001713469F420FD1CDE9094116
:10E2A0000023069330686968C3689847044668B1DC
:10E2B00014F1340F00F0F2802046FDE0D8682A6A9D
:10E2C00002445868121A2A621033E5E705F11C0867
:10E2D0000DF12C094FF0FF3310224146484606F15C
:10E2E000200A10270B9300F02FFC00942246CDE962
:10E2F00001876B6851463046FFF761F904460028F4
:10E30000D6D108EE909A8346B8462AE0079B9B45F3
:10E3100080F29F80059A4FEA0B1302EB0B19D3583A
:10E32000434540F09680D9E9021218EE900A00F0B9
:10E330000BFCD9F80C300293D9F808300022CDE953
:10E34000007351466B683046FFF739F904460028E0
:10E35000AED1D9F804309844D9F80C300BF1010B48
:10E360001F442B6A23F00043043BBB42CED8042356
:10E370000DF12C080293CDE900786B68002251461C
:10E380003046FFF71CF90446002891D14FF0FF33C7
:10E390000246736151463046FFF7E4F80446002810
:10E3A00086D13068036998470446002880D14FF031
:10E3B000FF330F932B6A696823F000430FAF0246C7
:10E3C0000097043B3046FEF746FF044600287FF4E2
:10E3D00073AF0F9A0B9B9A4260D1069B4BB306F129
:10E3E00004094846FEF78DFD002875D143463A469C
:10E3F00009A93046FFF732F800285DDB6CD06B6866
:10E400000D93AB680E93424600233946304600F028
:10E4100076F8002850D1494609A8FEF77CFD18B9C6
:10E420006B687360AB68B3603046FFF796FE0028F8
:10E4300042D13469002C3FF43FAF18EE101A201D72
:10E44000FEF769FD18B96B686360AB68A360246868
:10E45000F0E7012300930A990FAB42463046FEF7DE
:10E4600001FE044600287FF427AF18EE900A01222F
:10E470000FA900F069FB012302930FABCDE90073F4
:10E4800022466B6851463046FFF799F8044600284B
:10E490007FF40EAF08F10108013762E74FF0FF3358
:10E4A0003362002201230FA909A8CDE90F23FEF74B
:10E4B00032FD30B96FF033001BB0BDEC028BBDE80C
:10E4C000F08F18EE101A3046FFF74AFB012306932F
:10E4D00000283FF4E7AEEFE73A4609A93046FEF7D9
:10E4E000EEFF0028E8DBA4D06B681893AB681993A3
:10E4F00000231A4639463046FFF7B7FE97E770B556
:10E50000154688B055F8044BD27900940C26002BA0
:10E51000CDE905230792344414BF022301236A4640
:10E52000CDE9016503960494FFF79FFE08B070BD26
:10E5300070B592B006460D46FFF71EFD044670BB4F
:10E54000EB6903F41023B3F5803F28D12A1D104650
:10E55000FEF7D7FC18BB07A93046FEF7A1FE04461C
:10E56000E8B90C23CDE90400EA6806900093089905
:10E57000039204AB3046FEF775FD044678B92B696B
:10E5800005936B69069303AA034607A93046FFF774
:10E59000B6FF044618B9EB6923F48033EB612046DB
:10E5A00012B070BD70B505460C46FFF7C1FFEB68B1
:10E5B000064605F10C021BB1A3420DD1236813607E
:10E5C000A3690BB11B682BB92B685B6B13B9606B2C
:10E5D000FCF72DFA304670BD1A461B68EBE72DE9B3
:10E5E000F043074695B00E469046994601F1240443
:10E5F0004046316AFEF7A0FC3B68DB69084498425C
:10E6000018D84346043943F8041B0022CDE90A23F5
:10E610000C23CDE90C3198F807300991CDE90E298A
:10E62000109309AA022331463846FFF71EFE15B0A3
:10E63000BDE8F083002937DB35460FCD09AC0FC4A8
:10E640000FCD0FC495E8070084E80700314638462F
:10E65000FFF7E6FA0028EAD1129B7362139BB362BC
:10E66000336A4246043B42F8043B03920C22CDE954
:10E670000130CDE9042398F807300893CDE9060965
:10E68000022301AA31463846FFF7EFFD0028CED11C
:10E69000119B43F00043119373681293B368139373
:10E6A0000246034609A9BFE7224631463846FEF72F
:10E6B000F7FD00289CD0BAE72DE9F04780468CB0E2
:10E6C00010460C461646FEF737FC0B6A143023F052
:10E6D000004383421DD101AA04314046FEF7EFFEFC
:10E6E000051E12DB099A002A13DA236A63F000433D
:10E6F00013400993636A0A93A36A0B9300231A4693
:10E7000001A94046FFF7B1FD054628460CB0BDE81B
:10E71000F087336801933046FEF70EFC0023CDE905
:10E7200003330290012301AA21464046FFF79DFDD5
:10E7300005460028E9D1D8F80C70211D4FF0FF3AAA
:10E74000CFB9D8F81070211D002FDED0381DFEF78C
:10E75000E2FB70B9FC6833689C420AD93046FEF788
:10E76000EBFB201AF8603046FEF7E6FBBB69181A8F
:10E77000B8613F68E8E7381DFEF7CDFB30B9D7F840
:10E780000C903368994503D1C7E901AA3F68D7E7E0
:10E79000FCD93046FEF7D0FBA9EB0000F860F5E7A6
:10E7A0002DE9F047A4B00546FEF774FC04460028A6
:10E7B00040F088802B685A6A0146D208E86B01F065
:10E7C00091FE2B68EC62D3E908216C63914294BFFF
:10E7D00029632A631B6AAB630EA92846FFF720FA58
:10E7E000044600286BD119A92846FFF719FA0446F8
:10E7F000002864D10346024619A92846FFF735FDD3
:10E80000044600285BD1DDF868A0DDF86C90C5F8FF
:10E8100004A04FF0200806AE01464246C5F8089015
:10E82000304601F05FFE41F22E43ADF81830082368
:10E830008DF81B302B68DA690992244A1B6A10682C
:10E8400051680A934FF001130B930CAB03C33423AD
:10E850001027169301AA01230EA92846CDE907A97E
:10E86000CDE917A9CDE90178CDE903680597FFF750
:10E87000FCFC20B110F1340F02D004461FE001244B
:10E880002023CDE90236049301AA01230EA92846CC
:10E890000197FFF7EAFC20B110F1340FEDD1002C05
:10E8A000EBD000220123CDE901230EA901AA2846BD
:10E8B000FEF7F6FC044610B92B681B6AAB632846CA
:10E8C000FEF741FB204624B0BDE8F0874812020065
:10E8D00030B59DB090F8403001910546002B40D0F6
:10E8E00001AB02AA06A92846FEF7DEFE831C0446F9
:10E8F0003FD101982F2101F0E6FE002836D12B6888
:10E900001B6AAB6311A92846FFF78AF9044668BB66
:10E910000F9B1A93109B1B930246034611A928468E
:10E92000FFF7A3FC044608BB40F622038DF80E0057
:10E930000198ADF80C3001F0F6FE129A139B8DF899
:10E940000F00CDE90F230492059302AA019B06A9AB
:10E950002846FFF744FE044640B92B681B6AAB63A8
:10E9600004E0FFF7FAFB04460028B9D020461DB0AA
:10E9700030BD002808BF6FF01004F7E72DE9F04321
:10E980001F4693B003F00303012BDDF8688001926A
:10E9900006460C4611D101AB03AA07A93046FEF783
:10E9A00083FE0546B0B99DF81030222B00F083801D
:10E9B000B90532D56FF0100508E090F84030002B13
:10E9C000E9D1FFF7CAFB05460028E4D0284613B07A
:10E9D000BDE8F083821CF9D101982F2101F073FE6C
:10E9E00081460028F2D1FB05F0D540F611038DF8E1
:10E9F00012000198ADF8103001F095FE4FF0FF3392
:10EA0000CDE905398DF81300019B03AA07A930460B
:10EA1000FFF7E5FD05460028D8D1089B6360099BF8
:10EA2000A360039BE360059B23610022069BC4F85F
:10EA3000188078056361E76122621BD44FF0FF33D1
:10EA4000E362B8F1000F1FD0D8F80030E3B1636380
:10EA50004FF0FF33E362E36903F00303012B04D0BB
:10EA6000306804F12C01FEF70AFBF36823600025EF
:10EA7000F460ABE713B147F48037E7614FF0FF3242
:10EA80000023C4E90423D9E733685A6B32B1F36831
:10EA900013B16FF00B0599E76263D9E7E26902F001
:10EAA0000302012A0CBF58699869FBF7A1FF606354
:10EAB0000028CDD1EDE76FF0140587E713B50024EA
:10EAC0000094FFF75BFF02B010BD10B59CB090F84A
:10EAD00040300191044643B101AB02AA06A9204689
