:0200000270008C
:1080000000000120BD820700E5820700E78207002B
:10801000E9820700EB820700ED8207000000000004
:108020000000000000000000000000006DB9070023
:10803000F182070000000000F3820700F5820700CC
:10804000F7820700F7820700F7820700F782070030
:10805000F7820700F7820700F7820700F782070020
:10806000F7820700F7820700F7820700F782070010
:10807000F7820700F7820700F7820700F782070000
:10808000DDB90700F7820700F7820700F7820700D3
:10809000F7820700F782070035B90700F78207006B
:1080A000F7820700F7820700F7820700F7820700D0
:1080B000F7820700F78207000000000000000000C0
:1080C000F7820700F7820700F7820700F7820700B0
:1080D000F5B90700F7820700F782070000000000EB
:1080E0000000000000000000000000000000000090
:1080F0000000000000000000000000000000000080
:10810000000000000000000000000000000000006F
:10811000000000000000000000000000000000005F
:10812000000000000000000000000000000000004F
:10813000000000000000000000000000000000003F
:10814000000000000000000000000000000000002F
:10815000000000000000000000000000000000001F
:10816000000000000000000000000000000000000F
:1081700000000000000000000000000000000000FF
:1081800000000000000000000000000000000000EF
:1081900000000000000000000000000000000000DF
:1081A00000000000000000000000000000000000CF
:1081B00000000000000000000000000000000000BF
:1081C00000000000000000000000000000000000AF
:1081D000000000000000000000000000000000009F
:1081E000000000000000000000000000000000008F
:1081F000000000000000000000000000000000007F
:1082000010B5054C237833B9044B13B10448AFF3D0
:1082100000800123237010BD105A002000000000D0
:10822000D8D9070008B5034B1BB103490348AFF386
:10823000008008BD00000000145A0020D8D90700B3
:10824000A3F5803A704700BF174B002B08BF134BB4
:108250009D46FFF7F5FF00218B460F461348144A51
:10826000121A05F055F80E4B002B00D098470D4B15
:10827000002B00D098470020002104000D000D487D
:10828000002802D00C48AFF3008005F001F8200070
:10829000290003F049FD04F0E7FF00BF00000800DB
:1082A000000000000000000000000120105A002023
:1082B000D47F002000000000000000000649074AAB
:1082C000074B9B1A03DD043BC858D050FBDC03F07E
:1082D000F3FBFFF7B9FF00003CDA07006859002004
:1082E000105A0020FEE7FEE7FEE7FEE7FEE7FEE7A6
:1082F000FEE7FEE7FEE7FEE770B5EFF3108672B625
:108300000D4A94680123A4B993600C4B0C4DD3F82B
:10831000801029401160C3F88050D3F88410516058
:108320004FF0FF32C3F88420047006B962B6002013
:1083300070BD0370F9E700BF2C5A002000E100E097
:10834000FC06FFBD044B53E8011FC1EA014143E8AD
:108350000112002AF7D17047385A0020044B53E825
:10836000021FC1EA214143E80212002AF7D17047F7
:10837000385A002013B5114B53E8012F94B2D98914
:108380000C4499898C4228BF641A19898C4202BF17
:10839000BFF32F8F002307E0C4EA020443E8014142
:1083A0000029E9D14FF001038DF803300192019BC0
:1083B00003609DF8030002B010BD00BF385A0020D2
:1083C00010B5064B002253E8001F01EA020043E803
:1083D000000494F0000FF6D110BD00BF485A0020F1
:1083E0002DE9F0471F46194B4360DDF82080044615
:1083F0000D46164600F0EEFB60B9DFF85490C4F865
:1084000000904DB1A6B1636832465B6829462046AC
:10841000984750B1BDE8F08748F21050FAE748F2AB
:108420001450F7E748F20250F4E723684B45F9D1BE
:108430006368D8F80010DA689142F0D342463946B2
:1084400020469B68BDE8F047184700BFC0D307002F
:108450006E52464890F8552012F0FB0F08D190F864
:1084600064302BB1836ED3B10E4A01201362704782
:1084700012F0010303D090F8563003B1836D9207D8
:10848000F1D590F85C20002AEDD0074A016EC2F5C4
:10849000FC22914201D80B44E5E7042070470F20ED
:1084A000704700BF2C5A00200080070038B5054DEA
:1084B000044645F001054FF47A40A847013CFAD143
:1084C00038BD00BFE0D30700024B012283F824200F
:1084D000704700BF2C5A0020024B012283F8252050
:1084E000704700BF2C5A002070B5084A084C07237B
:1084F0000421082540FA03F6F60721604CBF1560F9
:108500002560013B1160F5D270BD00BF0805005029
:108510000C05005038B54FF0A04315464FF00072DF
:108520000C46C3F80C2528B14FF48022C3F80C2563
:10853000FFF7DAFF34B94FF0A0434FF00072C3F8F1
:10854000082538BD4FF0A0434FF48022C3F808251A
:108550002544AC42EFD014F8010BFFF7C5FFF8E754
:1085600037B5013A1C4643BA104404220D46ADF813
:1085700004300DEB0201030A8DF80700013C2A20AC
:108580008DF80630FFF7C6FF61196BBA0422ADF80B
:1085900004308DF807100B0A2B200DEB02018DF82B
:1085A0000630FFF7B7FF002211462C20FFF7B2FF7D
:1085B00003B030BD70B5F02300211A46F8B008466C
:1085C000FFF7CEFF0023F0251E46F0240DF80360D0
:1085D0000DEB030202339BB2B3F5F07F567006D366
:1085E0004FF4F07269460020FFF794FF0023013C2E
:1085F00014F0FF04EAD1013DADB2002DE5D178B011
:1086000070BD30B5042389B015461A46FFF7A8FFA0
:108610006B4600242A0A1946102C03F1020305D1E7
:1086200020220020FFF776FF09B030BD013403F8A7
:10863000022C03F8015CE4B2EEE72DE9F04F85B0BF
:108640004B1E86B2009306F114039BB215464FF001
:108650000A0B0293009A12F8013F009213B905B079
:10866000BDE8F08F2E2B0BD02B2B0BD0602B01D91C
:10867000203BDBB2303B5E2B06D90BF1100BE9E758
:108680005C23F7E74023F5E74FF0050A93FBFAFA7E
:108690000AEB8A0AA3EB0A0A0AEB4A021FFA8BF8D2
:1086A0000192194AA3EB0A0308F1040908F108072B
:1086B00002EB430A31461FFA89F9BFB2019B3AF82F
:1086C000024B03911C4114F0040218BF2A46404695
:1086D000FFF797FF14F002020399039118BF2A468F
:1086E0004846FFF78EFF14F001020399039118BF6B
:1086F0002A463846FFF785FF0399029B043189B269
:108700008B42DBD1B9E700BFE6D3070008B50728E5
:108710001DD8DFE800F00B141C181C041C040C49C5
:108720004FF47842BDE808408C2086E709494FF4B1
:1087300078425020FFF781FF07491F22F2E70749DF
:108740004FF4FC62EEE706494FF4FC62EAE708BD2D
:108750004CD3070057D3070060D307006BD3070043
:1087600076D30700BFF34F8F0549064BCA6802F462
:10877000E0621343CB60BFF34F8F00BFFDE700BF44
:1087800000ED00E00400FA0508B5FFF7EBFF08B5BF
:10879000FFF7E8FF4BDF704761DF704769DF704725
:1087A00060DF704711DF704710DF704769B10B78E9
:1087B000022B0CD1022804D0032814BF082011205A
:1087C000704703230B70002070470E20704708206D
:1087D000704738B1044B0360044B436001230372BC
:1087E000002070470E20704761980700AD87070092
:1087F00010B543F2040319491C688C4202462BD081
:1088000042F20403C358581A434243418C4218466B
:1088100021D142F20403D358A3421CD14FF4405358
:1088200002F500511B780978142B81BF43F2140321
:108830000B481B68B3FBF0F398BF0023142989BFD2
:1088400042F2140100205058054A88BFB0FBF2F0F4
:10885000181A18BF012010BD0023D7E7DBE5B1517E
:1088600040420F0043681A44426011B101399A42F4
:1088700001D10120704713F8010B01F8010FF6E751
:1088800010B55B68DA680C4B9A4207D10B4B9A6AB9
:108890000AB9DA6A1AB1002283F8302010BDD0E993
:1088A0000121114412F9014B002CA1EB0200F9DB6C
:1088B000C3E90A200122EFE740D407002C5A002028
:1088C00043F204031A68084B9A4201BF43F20803BB
:1088D000186800F6FF7020F47F600CBF20F00F00D6
:1088E0004FF48050704700BFDBE5B15108B5FFF78A
:1088F000E7FF054BDB6C184400F6FF7020F47F6047
:1089000020F00F0008BD00BF2C5A0020F8B5094E1A
:10891000094CA41B0746E40800250436A54201D1F2
:108920000020F8BD56F83530384698470028F8D171
:108930000135F3E7DCD90700E4D90700831F012BD9
:1089400010B5044602D80020FFF7E0FF044BD3F82F
:10895000B4331BB12046BDE81040184710BD00BF1E
:108960002C5A002029DF7047024B0620D3F8B83379
:10897000184700BF2C5A002018DF704743690BB11D
:10898000C0681847704713DF704766DF704762DFC3
:108990007047B5DF7047B1DF7047B0DF7047AEDFBB
:1089A00070477FB50023CDF80B308DF80F300B4B9F
:1089B000ADF80610B3F8C833ADF8083001238DF8D0
:1089C0000A300DF10603CDE90430054B02A91888E1
:1089D000FFF7E5FF07B05DF804FB00BF2C5A00204D
:1089E0006859002010B5044686B000210D2202A867
:1089F000019104F08DFC2378082B0ED1384AB2F88F
:108A0000D033B2F8D213013B9BB2A2F8D033E9B114
:108A1000E3B90323A2F8D0132370627823788DF88A
:108A200005306021012A8DF804108DF806200FD042
:108A30000B2A13D12A4B002193F8D4238DF8072059
:108A400083F8D413042101A8FFF7ABFF06B010BDD3
:108A5000062B05D0082B29D0032B27D00321F2E7C2
:108A6000E1688DF80710D4E90123080A8DF80800A1
:108A7000080C090E8DF80A10110A8DF80B208DF8DC
:108A80000C10110C120E8DF80E201A0A8DF80F30F2
:108A90008DF810201A0C1B0E8DF80D108DF80900A2
:108AA0008DF811208DF812300F21CCE7D4E9012385
:108AB000110A8DF807208DF80810110C120E8DF890
:108AC0000A201A0A8DF80B308DF80C201A0C1B0E98
:108AD0008DF809108DF80D208DF80E300B21B2E7BE
:108AE0002C5A0020ADDF7047AADF7047A8DF70471F
:108AF0008FDF704786DF70477FDF70477DDF70470D
:108B00007CDF70477ADF704776DF704775DF70472C
:108B100074DF704773DF704772DF704770B51822DB
:108B20008CB000210DEB020004F0F2FB2823254C51
:108B300008931623ADF806300023CDE903330593DF
:108B400004F2D53302930223062284F8D53384F845
:108B5000D93359230125092684F8D72384F8DA3339
:108B60000322FE230DF1060104F2DE308DF81850C9
:108B70008DF82D50ADF80C6084F8D65384F8D823C6
:108B800084F8DB33FFF7BAFFC8B9BDF8063084F8C4
:108B9000DD635A1984F8DC23BDF80C200A4C134419
:108BA00002A906AAA01CADF80C30FFF7B5FF30B93A
:108BB000A078FFF7ADFFA0782946FFF7ABFF0CB018
:108BC00070BD00BF2C5A0020685900206DDF70472F
:108BD0006CDF70470E490F4A30B500240025C0E90C
:108BE0001445C0E916120C4C0C4A0D4DC0E9184250
:108BF0000C4AC0E91A520C4A026702F17452A2F5FB
:108C000023020023A2F6924283644267184630BDD5
:108C100067E6096A85AE67BB72F36E3C3AF54FA50D
:108C20007F520E518C68059BABD9831F10B50B6822
:108C30009A684B680024C0E90243C0E90022948886
:108C400023440361B2F90640234443614B68036146
:108C500001F10C034361937803F0C003802B04BF40
:108C60000431016110BD2DE9F341002604460F4691
:108C7000B0463546A3682BB3236801220DF10701E6
:108C800020469847F0B1A3689DF807C0013B0CF05F
:108C90007F02C5F12001A360A5F1200302FA03F3CE
:108CA00022FA01F10B43AA401CF0800F46EA0206AB
:108CB00043EA080805F1070502D1C7E9006802E0A8
:108CC000462DD7D1002002B0BDE8F081F7B50F46A0
:108CD00069461646FFF7C7FFB0B1DDE9001300256E
:108CE00001F001044A0842EAC37254EA05014FEA5E
:108CF000530314BFDD431D463B8914BFD4431446C0
:108D0000082B03D1C6E9004503B0F0BD042B08D100
:108D100034602246D317AB4206BFA2420120002096
:108D2000F2E7022B03D123B233801AB2F2E7012B10
:108D300003D163B233705AB2ECE70020E4E773B5B5
:108D40000C4669461646FFF78EFF68B12389082B4B
:108D50000CD1DDE90045C6E90045DDE90023AB4261
:108D600006BFA2420120002002B070BD042B04D136
:108D7000009B33601C460025EFE7022B4FF00000FC
:108D800004D1009B33809CB20546E6E7012BEBD172
:108D9000009B337003F0FF04F6E737B50D466946D4
:108DA0001446FFF760FF30B12A89082ADDE9003157
:108DB00003D1C4E9003103B030BD042A18464FEA9C
:108DC000E37108D123601A460B468B4206BF8242EC
:108DD00001200020EFE7022A04D11BB223801AB23F
:108DE000D317F2E7012A03D15BB223705AB2F7E737
:108DF0000020E0E72DE9F34183680446884623B963
:108E00000026304602B0BDE8F081036801220DF172
:108E10000701984706460028F2D0A3689DF807503E
:108E2000013BA3609DF90730002B1ADA05F07F059E
:108E30000727A368002BE3D0236801220DF1070167
:108E4000204698470028DBD0A3689DF80720013B07
:108E5000A36002F07F03BB401D43130607F1070721
:108E600002D4C8F80050CCE7232FE2D1C8E773B58D
:108E70000D4601A90446FFF7BDFF064618B90026B6
:108E8000304602B070BD94E80F0085E80F000199EC
:108E90008A42F4D3A960A3685B1AA360F0E730B5F7
:108EA000044685B01546A9B90268124B9A4211D002
:108EB000102D06D82A4669462046FFF7F0FF05B078
:108EC00030BD102269462046FFF7E9FF0028F6D0A2
:108ED000103DEDE7A368AB4201D20020EFE7236825
:108EE0002A46204698470028F7D0A268521BA26065
:108EF000E5E700BF65880700F7B50E4601A90746FC
:108F00001546FFF777FFA8B1019A0123D3184FF058
:108F1000000404D2B17801F0C001802901D12046BB
:108F200008E031899942FAD329463846FFF7B7FF5E
:108F3000019BEC5403B0F0BD73B50D4601A9064684
:108F40001446FFF757FF98B1019AB2F5803F11D24E
:108F5000AB7803F0C003802B02F102010AD02B8909
:108F60008B4207D32146304621F8022BFFF797FFAB
:108F700002B070BD0020FBE713B514466946082215
:108F8000FFF78DFF18B1DDE90023C4E9002302B02B
:108F900010BD13B5144604220DEB0201FFF77FFF4D
:108FA00008B1019B236002B010BD13B5044605292A
:108FB0001FD8DFE801F0030F151E1E1C012201A9B6
:108FC0002046FFF76CFF18B19DF90430002BF5DB4C
:108FD00002B010BD082200212046FFF760FFF7E72E
:108FE00001A9FFF707FF0028F2D0019AF3E7042256
:108FF000F1E70020ECE710B543681A887AB103F175
:10900000100242601A8A62B90168C368C0E901129D
:109010008C8823440361B1F906100B444361104668
:1090200020E099781A8901F03004302C1BD19C7C07
:1090300004F03004302C1DD199880269521A026163
:109040000022997811F0300F02BF816801318160F0
:10905000998A114402690A440261B3F916301A442C
:109060004261012010BD01F0F004202C02D1598989
:109070004A43E6E701F0C001802908BF0422E0E787
:109080000A4AD2F800347BB109480023D2F8081507
:10909000D940C90748BF03F5C07103F1010348BFB8
:1090A00042F82100072BF1D1704700BF00000140BA
:1090B0003546526EE4E737B56FF07F42154C057BBD
:1090C000D4F804358A4228BF0A46891A13444A1E36
:1090D000942A23F07F4305F5A8729BBF963B9631F7
:1090E0004160416044F822300B4B4FF4F86043F08C
:1090F00001039847094BAA00134400221A601B6819
:109100000193019B4FF48033AB40C4F8043303B0A8
:1091100030BD00BF00400240F0D407004041024093
:10912000194991F8F42384B0002A2AD14FF08043E2
:10913000A020D3F81834DB035EBF144B01221A6061
:10914000134A0023136012680392039A114A1360B2
:1091500012680292029A104A136012680192019AF0
:109160000E4A82F82403102050600D4A0D48C2F8C0
:1091700008350123036002201360C2F8040381F85C
:10918000F43304B0704700BF2C5A002008000040A0
:1091900000410240404102404441024000E100E001
:1091A000004002400840024038B5114BD3F800247B
:1091B000CAB1D3F804450F4D40F616518C42B8BFE2
:1091C0000C46A4F54864FFF75BFFEC61FFF7A8FFCE
:1091D0002846094B40F8143F2146FFF76CFF074B28
:1091E0004FF480321A60064B012283F8F52338BD14
:1091F0000000014068590020B590070000E100E040
:109200002C5A00200139090B30B5020B01EB10314B
:1092100001254FF08040914201D2002030BD02F084
:109220001F03540905FA03F3032C05D8DFE804F003
:109230000206090CC0F800360132ECE7C0F804362B
:10924000FAE7C0F81036F7E7C0F81436F4E7C1F3D0
:109250000B021AB9B0F5FE2F00D8D3E707207047EC
:1092600041DF7047013A02440139824200D270471F
:1092700011F8013F02F80139F7E770B516460D46BF
:10928000FFF7F0FF3246A9193044BDE87040E9E726
:10929000F0B5174F174D184CED1B012291B0ED089A
:1092A00084F8F6230026B5421AD1022384F8F63357
:1092B000684612492022FFF7E0FF0023C4F8F83384
:1092C0000F48104BC4F8FC3320226946FFF7D5FF46
:1092D0000D4BC4F8F833012384F8403411B0F0BDCD
:1092E00057F8363098470028E2D10136DBE700BF57
:1092F000DCD90700DCD907002C5A0020F8D407007D
:109300002C5E002038D507007052464D024AD2F834
:109310000034002BFBD0704700E001400E4B10B52D
:109320000124C3F80445BFF36F8FBFF34F8F01EBE8
:109330008204401AA14208D1074B0022C3F8042539
:10934000BFF36F8FBFF34F8F10BD431851F8042B3D
:109350001A60FFF7DBFFEDE700E001400A4908B5BE
:109360000223C1F80435BFF36F8FBFF34F8FC1F8ED
:109370000805FFF7CBFF0023C1F80435BFF36F8F5B
:10938000BFF34F8F08BD00BF00E001402DE9F04F53
:10939000C9B008AA01F1400514464B780E781B04A9
:1093A00043EA0663CE7833438E78043143EA0623DA
:1093B0008D4244F8043BF0D11024916B16464FEADD
:1093C000F14383EA714383EA9123716A366852F864
:1093D000045F31440B444FEAB54181EAF51181EA5B
:1093E000D50101340B44402CD363E6D1D0E914E31A
:1093F0000093836D0193C36D0293036E0393436ED9
:109400000493836E0593C36E0693DDE9057BDDE966
:10941000031CDDE901592B4B009E079374464FF066
:109420000008079B53F8042B07934FEAF12383EAC4
:10943000B11383EA716A08AB53F828301A440AEB77
:10944000020327EA010A01EA0C028AEA02021A442C
:109450004FEA743A86EA05035A448AEAB40A06EAED
:10946000050B234083EA0B038AEAB45A08F101088A
:109470009A44B8F1400F02EB0903BB465244A94697
:1094800019D172440265009A22444265019A32441D
:109490008265029A2A44C265039A1A44049B0266B2
:1094A0000B444366059B63448366069B3B44C3664B
:1094B00049B0BDE8F08F674635468C4626461946CA
:1094C0001446AEE744D50700F8B504460D46EAB9A0
:1094D00000201EE004F10800AE180027B542F7D0C6
:1094E000A36C15F8011BE2180133402B1172A36421
:1094F000F4D10146FFF74AFFD4E9143213F50073A3
:1095000042F10002C4E91432A764E7E70029E1D17F
:109510000E20F8BD436843B1026891680B44436074
:109520005268934204BF0023436070477FB50E4DDD
:109530000E4C0F4E01A8FFF72DF978B9B44218BFB1
:10954000204602950390039B002BF3D00198D3E9AA
:109550000021904702A8FFF7DDFFF4E7052801D0BE
:10956000FFF700F904B070BD44D607002CDA0700FD
:1095700034DA070030B5134DADF5017D4FF4FA74C0
:109580000DF1020103A8ADF80240FFF705F988B913
:109590000D4B0E4A0195934208BF03460293029B6E
:1095A000002BEDD003A8D3E90021904701A8FFF7D5
:1095B000B1FFF4E7052801D0FFF7D4F80DF5017DE0
:1095C00030BD00BF50D6070004DA07000CDA0700F0
:1095D000024B93F8413403B1CCE770472C5A00207A
:1095E00013B50A4B0A4A00930A4B934208BF002363
:1095F00004460193019B0BB902B010BD2046D3E98C
:10960000002190476846FFF785FFF3E75CD6070027
:109610001CDA070014DA070013B50C4B0C4A009350
:109620000C4B934208BF002304460193019808B9EC
:1096300002B010BDD0E900212046904718B168461D
:10964000FFF768FFF2E71120F2E700BF68D60700D6
:1096500014DA07000CDA0700044B93F84C040122DB
:10966000B0FA80F083F85524400970472C5A002046
:10967000034B93F84C04003818BF0120704700BF1B
:109680002C5A002000207047002070470846704781
:10969000084670470E4B30B543600E4B012003F275
:1096A000444151E8002F42EA000441E8004595F0AA
:1096B000000FF6D152B993F8581483F8541403F2FA
:1096C0005C41C3E903125A61034A9A61002030BD2C
:1096D00074D607002C5A0020DC011C0070B5066807
:1096E000B36886B004460D4673B114220021684663
:1096F00003F00EFEA36805932379019533B1012B86
:109700000ED0B3686846984706B070BD01238DF847
:10971000003023690293E368039363690493F0E7DD
:1097200002238DF80030E3681B030293F5E728DF7E
:109730007047034BD869003818BF0120704700BF3D
:109740002C5A00202DE9F0431546984687B0174B58
:1097500081460E46012253E8004F44EA020143E8E5
:10976000001090F0000FF6D1ECB92746BD4214D19D
:10977000FEF726FED9F808305BB102228DF80020F2
:109780000022CDE90126CDE90325CDF814806846F5
:109790009847204607B0BDE8F08306EB0730FFF797
:1097A000DDFD0137E2E71124F3E700BF485A00204E
:1097B0002DE9F0431D4687B0144B80460F461646F0
:1097C0004FF0010953E8004F44EA090243E8002141
:1097D00091F0000FF6D1BCB9AA0831463846FFF720
:1097E0009DFDFEF7EDFDD8F808304BB10E9A8DF8CF
:1097F0000090CDE90147CDE9036505926846984799
:10980000204607B0BDE8F0831124F9E7485A00204C
:1098100008B5FEF7D5FD002008BD024B43600020CF
:10982000704700BF80D6070030B53AB11368DB43FC
:109830000A4D0144814204D1D84330BD4FF0FF337B
:10984000F6E710F8012B5340082213F0010418BF6B
:109850002C46013A84EA5303F7D1EBE72083B8EDB5
:1098600070B504460D4601B30B78012B06D01ED906
:10987000033B012B94BF0820112070BD0D4ED6F87C
:10988000643390B1013312D1002218210430FFF764
:10989000CBFF07222060214606F55970FFF762F8DA
:1098A0000028EAD102232B70E7E70E20E5E7082025
:1098B000E3E700BF00F0070010B5084B9A685AB103
:1098C00050B9EFF3108172B6054A1C6814605C68E9
:1098D0005460986001B962B6002010BD2C5A002077
:1098E00000E100E013B5002304460DF107008DF8F8
:1098F0000730FEF701FD094A0948D2F83836591CED
:10990000C2F83816241AF420B4FBF0F41C709DF849
:109910000700FFF7D1FF02B010BD00BF2C5A002096
:10992000A06F0020DEE773B51D4D95F858349BB34A
:10993000012085F84006FFF76FFE11284FF0000662
:109940002CD00220FFF74CFE0DF107008DF80760C8
:10995000FEF7D2FCFEF726FF04469DF8070085F8C7
:109960005864FFF7A9FF54B9AB6885F840464BB17E
:109970002B6823F480032B600320FFF731FE204681
:1099800002B070BD074B4FF48002C3F88020BFF3D4
:109990004F8FBFF36F8FEFE70824F0E73446EEE711
:1099A0002C5A002000E100E038B51549D1F84436C2
:1099B000024613F0010021D0124882421DD0124A03
:1099C00010884FF6FF74A04213D043F00403C1F88F
:1099D00044361321FFF798F880B90C4DC82445F0A0
:1099E00001054FF47A40A847013CFAD1BDE8384060
:1099F00099E79078FFF78CF8F8E7002038BD00BFB2
:109A00002C5A0020DCD907006859002090D60700A6
:109A100037B5234D95F85844002C3ED101232046FC
:109A200085F84036FFF7F8FD112833D02046FFF7C0
:109A3000D7FD1C4B8DF80340186801900DF1030011
:109A4000FEF75AFC184901A8FEF7AEFE0446B0FA2C
:109A500080F0400985F858049DF80300FFF72CFFBB
:109A6000C4B9124985F8404691F816335A09EC23D7
:109A70001341DB0705D5AB682BB94FF480030B60AE
:109A800005E0FEF76FFE2B6843F480032B60012096
:109A9000FFF7A6FD204603B030BD0824FAE700BF5B
:109AA0002C5A002096D607008987070000E100E0C5
:109AB00038B5831E012B54D82A4C94F84C34002B13
:109AC0004FD0022B0AD1032833D00022D4F84836D5
:109AD000C4F850241A793AB1012A24D094F85534A4
:109AE0009BBBBDE838403FE0D3E905128D1A142D29
:109AF00094BF521914329A619142EFD102284FF06B
:109B000000030CBF19460D21D4F8480684F84C34E4
:109B1000FFF7E4FDB4F84C26B4F84E369A42DDD196
:109B2000FEF71CFCDAE71A6901321A615B699A4296
:109B3000E3E7D4F850340133082B02D8C4F850348A
:109B4000CCE70023C4F85034D8E794F8403643B14A
:109B500094F8583413B1BDE83840E4E6BDE8384025
:109B600056E738BD2C5A002037B53E4C94F84C349B
:109B7000002B33D104F10C0353E8022F1FFAA2F09B
:109B8000D988884202BFBFF32F8F00230DE0D98907
:109B900008449989884228BF401AC2EA004043E835
:109BA00002010029E8D14FF001038DF80330019242
:109BB000019A9DF80330C4F84C2603F0FF0133B935
:109BC000C4F848160023C4F8483403B030BDE36835
:109BD00003EB1243C4F84836002BF3D00223D4F829
:109BE000485684F84C342B79ABB1012B2AD0032191
:109BF0002846FFF773FD0023B4F84C2684F84C3454
:109C0000C4F84834B4F84E369A42DED103B0BDE809
:109C10003040FEF7A3BBD5E90523D21A142AD5E9B3
:109C2000031028BF14229208012A38BF01221944C8
:109C30001844FEF797FE58B11128D8D1012384F8B3
:109C40004C34C2E7D5E903031844FFF770FDF2E78F
:109C500094F85434002BB8D10146022003B0BDE87B
:109C6000304025E72C5A002000F0FD03012B09D1DC
:109C7000054B002283F85524421E5042504183F880
:109C8000540471E7704700BF2C5A00200A4930B4D1
:109C900001F58963012253E8000F40EA020443E81A
:109CA000004595F0000FF6D120B991F855340BB965
:109CB00030BC59E730BC70472C5A0020044B186860
:109CC000421C04BF034B1878831F58425841704709
:109CD00030010010E00F00F0084B1B78062B0BD171
:109CE000074B1B68C3F30313033B042B04D8054A3B
:109CF000134493F8DA02704700207047E00F00F039
:109D0000E80F00F0C0D307002DE9F341274C0026EF
:109D100005460DF107008DF807600F46FEF7ECFAD7
:109D200094F85036B4F8521694F851068842C2B2EC
:109D300038BF561CDBB238BFF6B2B3422FD094F80E
:109D4000516694F85126D3B2914286BF0133DBB2FB
:109D5000002384F851369DF80700FFF7ADFD4FF65C
:109D6000FF739E4220D0D4F854264FEAC60842F82A
:109D7000367002EBC601ADB1D4F85836B4F85C06C3
:109D8000182206FB0030294603F0B4FAD4F8543602
:109D9000434418229A80002002B0BDE8F0814FF6BB
:109DA000FF76D8E78D80F6E70420F5E72C5A0020EF
:109DB0002DE9F743104C1E4623680546D3F8109052
:109DC000884617460146002301222046C84778B935
:109DD0004FF460724146304603F08CFA23680097D6
:109DE000DF6832464FF4607329462046B84700B119
:109DF000032003B0BDE8F083FC59002070B5038850
:109E0000212B8AB0044631D80F2B04D8012B00F047
:109E100007810AB070BD103B112BFAD801A252F88D
:109E200023F000BF9D9E0700BB9E0700139E070006
:109E3000C99F070035A10700139E0700139E070066
:109E4000139E0700139E0700139E070043A10700FF
:109E5000139E0700139E0700139E0700139E070022
:109E6000139E0700139E0700FD9F0700503B9AB208
:109E7000062ACED8062BCCD801A252F823F000BF78
:109E8000E59E07002DA0070043A10700139E0700D1
:109E9000139E07008D9F07000DA00700AC4B828822
:109EA0001A80AC4AD2F860261C460AB101209047BD
:109EB000A9492088FEF72AFEABE7A54BA54C4FF633
:109EC000FF721A80D4F84426510704D4FEF726FE08
:109ED00008B1FEF747FCD4F86036002B99D0022079
:109EE000984796E79B4EE288B6F8C0339A4290D1E5
:109EF000002504A88DF81050FEF7FEF9D6F8382694
:109F000006F264639A4212D9511EC6F8381612F846
:109F1000012C924BF42502FB053506F2756396F889
:109F20003C265B1ADBB29A4238BF86F83C369DF875
:109F30001000FFF7C1FC002D3FF46BAF228A04F143
:109F40001201284603F0D6F91822002104A803F0D4
:109F5000DFF908238DF81030814B0593814B069370
:109F6000814BCDE90735238AADF82430B6F85C364D
:109F7000172B03D82846FFF7B5FC4AE77B4904A80E
:109F8000FFF7C2FE00283FF444AFF3E7E188F6296B
:109F900018D8CB1E9A070DD0CB1F9BB2013B5A425B
:109FA00002F0030203F0030301F1FF3158BF5342F3
:109FB000C91A89B2664B1888FEF7EBFC00283FF4FB
:109FC00028AF86E7F721F5E70023ADF8123002232A
:109FD000ADF8103002AB05935D4B1C8804AA42F625
:109FE00005212046FEF77EFD034600287FF471AF71
:109FF000024685212046FEF77FFDDFE7002301A909
:10A000008088ADF80430FEF773FDD7E7A379002B05
:10A010007FF4FFAE4E4B13211888FEF775FDCDE798
:10A020004B4B00211888FEF7B0FCC7E7A379002B43
:10A030003FF4EFAE022B7FF4ECAE46492089B1F835
:10A04000C82390420D467FF4E4AEA27B012A7FF440
:10A05000E0AE0022CDE90422ADF808308DF81030D2
:10A0600001AB012003933A4B8DF81600208A1E881D
:10A07000ADF81800608AADF81A0004F114000790DA
:10A08000ADF80A20B1F8CC1302AA3046FEF72AFD3B
:10A0900060B99DF80430DB0708D440F2FD1304A931
:10A0A0003046ADF81430FEF778FCB2E6002304A980
:10A0B0003046ADF81430FEF770FC014600287FF4FE
:10A0C000A8AE182204A803F023F9237D244A0592A0
:10A0D000022B244A8DF81030069222D0062B10D085
:10A0E000012B10D1B5F8D233A5F8D033637DD4F865
:10A0F00016200893012B099205D11D48FEF706FC96
:10A1000001E0637D0893069B002B3FF482AEB5F817
:10A110005C36172B7FF67DAE144904A8FFF7F4FDDB
:10A1200077E6A27D637D43EA0223A5F8D233A5F842
:10A13000D033E8E700231A4619468088FEF7DAFC98
:10A140003CE70023A0881A461946FEF724FC35E7B1
:10A15000685900202C5A0020A0D60700A06F0020CC
:10A16000E85D0020E5890700259907001DB3070079
:10A17000DCD9070008B510461A4603F0BBF80020EA
:10A1800008BD08B510461A4603F0B4F8002008BD13
:10A1900070B54FF46072044608480D4603F09CF811
:10A1A00020B954B12346BDE87040184722462946DD
:10A1B000034B0248BDE87040FAE570BD00E00700BF
:10A1C000A4600020F0B5ABB004460D4616461F460D
:10A1D0007822202300210CA8039303F099F8114B57
:10A1E00093F840340BB9FFF753F82FB121462022E2
:10A1F00004A8FFF737F804AC03AB009332460A4BD0
:10A2000029460CA8FEF7ECF848B907482022214659
:10A2100003F062F8B0FA80F040092BB0F0BD0020E6
:10A22000FBE700BF2C5A00202464002030B5184BF7
:10A230001A6E9D6DDC6FAC2A85B00CD19B6E1548F3
:10A240001C44ED1A2A46A4F5804103F045F830B9C4
:10A25000002005B030BD14B9FEF748FB04460D4898
:10A260002A46214603F038F80028F1D00A4BD3F8EB
:10A2700000340BB1FEF704FF10220021684603F002
:10A2800047F8AD08684601940295FEF775FBE0E7D4
:10A290002C5A0020008007000000014010B5114C2E
:10A2A0000022582104F13800FFF7BEFA0022606353
:10A2B000C32104F52570FFF7B7FA4FF46072C4F8B4
:10A2C000900204F13401084803F006F840B104F6A6
:10A2D000182304F134010448BDE81040002267E56A
:10A2E00010BD00BF2C5A002000F0070038B505460D
:10A2F000FFF7D4FF044618B902492846FFF748FF84
:10A30000204638BD605A00202DE9F04F02F6FF7656
:10A3100087B0330B03932B4B0493144693F8F52328
:10A32000A1EB000805460F464FEA183B0AB9FEF7B5
:10A330003BFFBBF1080F28BF4FF0080B4FEA0B3370
:10A34000DFF8849005930CB9224637E0039B1E4842
:10A350009B4528BF9A46D9F8003038BFDDF81480F5
:10A360001B6938BFDA461E4652464FF000032946A5
:10A3700028BFA046B047024600BBD9F800100090A5
:10A38000CA6808F10303164623F003033A46294638
:10A390004846B047024688B9039B049AA3EB0A03D8
:10A3A0000393049B5B6E43445366FFF79FFFA4EB4C
:10A3B00008044544474402460028C4D0104607B06C
:10A3C000BDE8F08F2C5A0020FC59002008B5154B31
:10A3D00042F20402D96F885802F1A34202F54712F3
:10A3E00002F2D752904219D1D3E91902904217D004
:10A3F000B1F5805F03D1BDE80840002076E7121A6E
:10A4000002F6FF7222F47F62014422F00F0200F58F
:10A410008050FFF779FF0028EDD008BD0320FCE74E
:10A420000020FAE72C5A0020034B0449044800227C
:10A4300083F82420ACE600BF2C5A002000F007006F
:10A440008F87070008B50C22002102F061FF024B44
:10A4500000225A6608BD00BF2C5A002010B5084CD7
:10A460004FF40072FF2104F1900002F051FF20220E
:10A47000002104F16C0002F04BFF0023636610BD65
:10A480002C5A0020F8B536480668741C51D0582163
:10A4900000220430FFF7C8F9311A4E424E41314FC5
:10A4A000314D3C68621C57D000225821381DFFF7FF
:10A4B000BBF984423FD17C68012C0AD00022C32121
:10A4C00007F51870FFF7B0F9D7F85C321B1A5C4239
:10A4D0005C4196B3224925484FF4607202F00AFFAE
:10A4E00054B123492348542202F004FF224923484F
:10A4F0004FF4327202F0FEFEAC6B012C2BD12049DE
:10A50000402201F5E47002F0F5FE1E491C2201F51F
:10A51000E47002F0EFFE1C4985F8D54200230422C6
:10A5200001F2862085F8943285F8163302F0E2FEB7
:10A530000FE00026B3E70024CBE724B109490B481C
:10A540004FF46072D6E709484FF46072002102F0C0
:10A55000DFFE0223AB63F8BD002EF4D00024B9E780
:10A5600000F0070000E007002C5A0020605A00208D
:10A5700004E00700645A00205CE00700BC5A002099
:10A58000BC5B0020FC5B00207C5A0020042870B5D6
:10A59000174D044609D8022812D824D0D5F8983D82
:10A5A00023B32046BDE870401847831F012BF5D820
:10A5B00000231049104885F82430FFF7E9FDEDE746
:10A5C0000E4E327C4FF4803393400D4AC2F808336C
:10A5D000FEF7A6FD30460B4B40F8043F4FF47011D8
:10A5E000FEF769FDDAE7FFF74DFFD7E770BD00BF63
:10A5F0002C5A002000F007008F87070068590020C0
:10A600000040024029A40700F8B513681F2B044638
:10A610000D46164664D9002965D0836CC11800F137
:10A620000807372B4FF0800003F10102087247D86A
:10A630000933234404F1400200219A423DD1D4E978
:10A640001423A06C0821E1FB0023104612BA6264B7
:10A650001A0A194684F8433084F842201A0C1B0E5B
:10A66000C4E9140184F84030394684F84120384662
:10A67000FEF78CFE691E1823A26DDA4001F8012F47
:10A68000E26DDA400A71226EDA400A72626EDA40D6
:10A690000A73A26EDA400A74E26EDA400A75226F1B
:10A6A000DA400A76626FDA40083B13F1080F0A7746
:10A6B000E2D1202333600020F8BD03F8011BBCE782
:10A6C000E31D00213F2A08D939463846FEF75EFED1
:10A6D0003822002102F01CFEB1E701329954F1E763
:10A6E00048F21450E8E70E20E6E730B54268927869
:10A6F00002F00F01082987B003460FD103691C68D7
:10A7000000250CB907B030BD214625736846FEF719
:10A710008DFA6846FFF7E9FFA468F2E712F0C0017E
:10A7200020D102F0300010280ED15A6911705A68F9
:10A7300018699378D46803F00F03072B09D10146F9
:10A74000204600F017F8DDE79006F0D55B69198028
:10A75000D8E71289214614B102F0CCFDD2E702F00D
:10A76000D7FDCFE78029CDD1006900219206016095
:10A77000C8D5EBE77FB50023CDE9023183881944C2
:10A78000B0F906300491194403880591CDE9000021
:10A790003BB16846FFF7A9FF6846FEF72CFC00288E
:10A7A000F7D107B05DF804FB2DE9F0435768BB789B
:10A7B00013F0C00489B006468C46154603D0402CE1
:10A7C0006CD000240EE0614903F00F0201EB82011E
:10A7D00003F03003202BD1F8E88226D006D8CBB185
:10A7E000102B1CD0204609B0BDE8F083302BF9D1E6
:10A7F0006B6939881980072A0AD16B6828691A8918
:10A80000214602F085FD6B682969D868FFF7B2FF21
:10A810002A6940E02A693946C0470446E2E76B6985
:10A8200001221A702A696968F6E7BCF1020FD5F8AF
:10A83000149024D1042A22D804A9FEF718FB044658
:10A840000028BED0069B2BB16968B9F800304A8950
:10A850009A4205D8059B7360069B002BC2D0B0E7D7
:10A8600008892A6903FB002204A8C04728B1B9F867
:10A8700000300133A9F80030E4E70446EAE7B9F80C
:10A8800000307A899A429CD92A693989581CA9F8DA
:10A89000000003FB012269683046BDE7D2F8108052
:10A8A000474657F8043B13B9FEF77FFBB5E702298B
:10A8B00014D104A9FEF7DBFA002882D0D8F80030C2
:10A8C00069683A4604A89847044600283FF479AFDF
:10A8D000069B002BF2D1059B736083E7012925D0ED
:10A8E00005292BD000297FF46CAF0C460DF104092B
:10A8F00001340B2C3FF465AF012249463046FEF788
:10A90000CEFA00283FF45DAF19F9013B002BEFDBD5
:10A910000F4B049301ABCDE9053400230793D8F81E
:10A92000003069683A4604A8984776E7082201A9EA
:10A93000FEF7B5FA08240028EAD142E704220DEB1D
:10A940000201FEF7ACFA0424F5E700BFC0D307000C
:10A95000658807002DE9F04F8B888FB00025CDE981
:10A9600004521A44B1F906300692CDE90055CDE9FA
:10A9700002111A44044607924FF00108A3682BBB4A
:10A98000DDE9033402A89D78FEF735FB0028F7D1F6
:10A9900015F0300F03D1039B1B8803B10134002C49
:10A9A00065D06309002293425BD10EAA02EB8303B8
:10A9B00004F01F044FF0FF30C4F1200420FA04F427
:10A9C00053F8380C231A5842584108E008A9204689
:10A9D000FEF710FA30B9A368002BD1D000200FB0D9
:10A9E000BDE8F08F089EDDF80CA0002EC8D0F70857
:10A9F00006F00706039B1A88974204D19B7803F060
:10AA00000F02082A58D102A8FEF7F5FADDF80C90DB
:10AA1000CA45EFD1BD420DD8039A937803F00F03D6
:10AA2000082B29D002A8FEF7E6FA039B9945F3D13B
:10AA30004FF0FF3531462046FEF7B7FA00289DD18A
:10AA4000CCE79B681B889F4233D1494608A8FEF794
:10AA5000EDF889F80C8008AA31462046FFF7A4FEDD
:10AA600025E05DF822100131B8D101329BE70120C9
:10AA7000B5E79A45DED081E71588BD42DAD8069B56
:10AA8000D4F808A0D3F80090A368B9F1000FF0D073
:10AA90009A457FF473AFD9F80030D3F800B0BBF11A
:10AAA000000FCED033463A4649462046D8470028C4
:10AAB00094D0D9F80890E7E713F0300F0FD1049B3A
:10AAC0003F2B0CD85A090EA901EB820203F01F0399
:10AAD00052F8381C08FA03F30B4342F8383CD4F818
:10AAE0000C90B9F1000F04D002AB32463946204633
:10AAF000C84702AA31462046FFF756FE9EE7F8B542
:10AB00002F4C304DE36E304F45F8407C04F19002FD
:10AB1000002145E90F2304F69C502C4B45F8343CAA
:10AB20004FF44772C4E90A1184F8301002F0F0FBC8
:10AB3000274804F69C51FFF71DFE254904F69C5258
:10AB4000A5F14000FFF706FF10B900263046F8BD1A
:10AB500094F83060002EF8D094F8083F94F89C1DCB
:10AB600013B30029F1D194F80E3F002BEDD0D4E9B6
:10AB70000A2304F5716045E910724FF4B27245E999
:10AB80000E3102F0C5FB134804F57161FFF7F2FDC9
:10AB9000104904F57162A5F14000FFF7DBFE0028C3
:10ABA000D3D004F5716407E00029CED094F8A23D1B
:10ABB000002BCAD004F6A45445F8304CC6E700BFB9
:10ABC0002C5A0020246B002065880700818807002C
:10ABD000CCD6070040D4070070B586B0CE6801928D
:10ABE0000D4602A90446FEF742F990B1E86880B12B
:10ABF000AB78019A03F03003202B04D11146304684
:10AC0000FFF7B8FD019A314602A8FFF7A3FE039BA8
:10AC1000636006B070BD2DE9F347824601A80D467A
:10AC200016461F46FDF7A6FB10B3124BBDF8048075
:10AC3000D3F80C9019EB08041AD01C2200212046EE
:10AC400002F066FB0123237149F808A0BDF8042037
:10AC5000BDF80630A7602D0B9A42E560666101D110
:10AC6000FDF770FBFFF712F8002002B0BDE8F08797
:10AC70000420FAE72C5A00202DE9F347824601A868
:10AC80000F4616461D46FDF775FB18B3124BBDF86F
:10AC90000480D3F80C9019EB08041BD01C2200216F
:10ACA000204602F035FB0023237149F808A00A9BD7
:10ACB000BDF80420A360BDF8063065619A42C4E97E
:10ACC000036701D1FDF73EFBFEF7E0FF002002B075
:10ACD000BDE8F0870420FAE72C5A002013B5134C86
:10ACE0001422002104F2444002F012FB04F10C0390
:10ACF00053E8021FD888B1EB314F4FF0000217BF65
:10AD000089B240EA004041EA004004E05968B1EBF2
:10AD1000314F08BF012243E802010029E8D18DF834
:10AD200007209DF80730002002B010BD2C5A0020EB
:10AD30002DE9F041394CBAB080460D4616461F4603
:10AD40007822202300211CA8039302F0E1FA94F852
:10AD500040340BB9FEF79CFA002D57D0B8F1000F24
:10AD600056D103AB0093409A2D4B39461CA8FDF7F2
:10AD700037FB00284ED1402E4CD132462946294877
:10AD800002F0B8FA274B102203F11F0118780D7852
:10AD900003F8015B013A01F80109F7D1224B1022B7
:10ADA00003F11F0118780D7803F8015B013A01F8EF
:10ADB0000109F7D1D4F8F8231C4B9A422CD1D4F8CE
:10ADC000FC335A79202A27D19B68039F9847D4F8EF
:10ADD000FC6313497479BC4228BF3C4605462246B1
:10ADE00004A8FEF73FFA72790E490CA8FEF745FA5F
:10ADF0000F4800950CAB224604A902F0B7F80028D2
:10AE000014BF012005203AB0BDE8F0811320FAE715
:10AE10001620F8E70A20F6E70520F4E72C5A002070
:10AE2000386B0020F86A0020186B00207052464DE5
:10AE30002C5E00202DE9F3415D4DD5E91B329A428D
:10AE400040F0B1805B4991F834300F464BB1FDF7CB
:10AE50004DFD886351F8300C02B0BDE8F041FDF7BC
:10AE6000F9BAFFF74CFE002800F09F8095F8082FF4
:10AE7000002A38D041F274034F49E85C41F276036E
:10AE800005F60C76EA5AEB6A0093AB6AFFF750FFBF
:10AE9000012804463ED196F85830002B7BD096F816
:10AEA0005920032A77D896F87230032B71D1337B5F
:10AEB000002B70D03369342B6FD143F20401B38A75
:10AEC00008683E49884254D15BB1B169002946D037
:10AED000DBB2002106F1180C43F20C0EC8B283421B
:10AEE00006D8122416E01146104605F55A66CAE740
:10AEF0005CF82180BEF80000804501F10101EDD130
:10AF00003379002B40D0012AB36838D8EA6B9A42D3
:10AF100088BF10240023012CBB632B6240D157F85B
:10AF2000300CFDF797FA0128044639D1FDF7DEFC15
:10AF300023492D6A081A854207D9FDF7C1FC081A72
:10AF400085422CD81F48FFF77DFAFDF7CFFC01237F
:10AF5000B86387F83430204602B0BDE8F08112B9FA
:10AF6000012BBED8CCE7531E18BF0123002BC7D13D
:10AF7000B7E713B1B369002BB3D13379F6E72A6C85
:10AF80009A4228BF1024C5E7012A14BF0F240124C8
:10AF9000C0E71424BEE70F24BCE71124BAE7042459
:10AFA000FFF75CFAD7E70824D5E70524D3E700BF0D
:10AFB0002C5A0020246B0020A46A0020DBE5B1514C
:10AFC00000500700785A002013B50446084623783D
:10AFD0001146032B03D8DFE803F021050F180020EA
:10AFE00002B010BD0022FEF71FFCD4F801308342EE
:10AFF00014BF00200120F3E70A4600230146601C2D
:10B0000002B0BDE81040FFF7DDB8009103464022D2
:10B01000611C0020FFF78CFE0128E9E70120DFE733
:10B020002DE9F043A3B004460D46174600217822CF
:10B030001E4604A820239DF8AC900393DDF8A88059
:10B0400002F066F941220021204602F061F9B5F8CC
:10B050009430BB4282BF442303FB075393F896907E
:10B0600084F80090B9F1030F1CD8DFE809F0090259
:10B07000111D002241463046FEF7D6FBC4F8010000
:10B08000424631462046FFF79FFF23B0BDE8F083DC
:10B0900003AB00934246631C314604A8FDF7A0F9B8
:10B0A0000028EDD00020F0E7442000FB07F2AB18A9
:10B0B00002F19A012944B3F89820601C02F01AF9B1
:10B0C000DEE72DE9F04F8B4D8B4CABB08046002670
:10B0D000641B1423B4FBF3F4A64231D1874C18222D
:10B0E000002102A802F014F9D4F82090D4F884A02A
:10B0F0000423CA458DF8083040F0EE80804B9D6BEC
:10B1000053F8307C52460123294607F17200FFF7BD
:10B1100059F8002800F0DE8097F85560002E4CD1D9
:10B120004FF0010BCDE900AB2B463246394619A84A
:10B13000FFF776FFD0B905267248FFF783F928E0BC
:10B140002B6813B901361435C6E7DB6928469847E2
:10B150000028F7D0694BB3F85C36172B03D96A493E
:10B160004046FEF7D1FD2BB0BDE8F08F412219A972
:10B1700004F2D52002F0BEF8C4F860B066657B68C2
:10B18000E363002249462846FEF74EFBC4E91690C9
:10B190000126FFF763F90A2E88BF0B3EE56784BFDF
:10B1A00084F8D4630B2602A8D8E901138DF809604E
:10B1B00098475648FFF79AF8D5E74122002108A89A
:10B1C00002F0A6F806F0010A4122002119A806F0B3
:10B1D000020602F09DF8BAF1000F00F0858042F2FD
:10B1E0000403E95803F1A34303F5471303F2D753CC
:10B1F0009942A0D1D7F858B00BF5FF530BF6FF7268
:10B20000C2F30B021F339B1A42F20802AA589A4259
:10B2100091D343F204031B688B4214D14FF4405383
:10B220001B78102B8ABF43F2100300221A6805F521
:10B2300000531B78102B8ABF42F210030023EB58F7
:10B240009A427FF478AF2846FDF7D2FA10B1002E6B
:10B250003FF471AF0123CDE900B300222B463946FC
:10B2600008A8FFF7DDFE00283FF465AFEEB92846D9
:10B27000FDF7BEFA10B12648FFF7E4F82548412251
:10B2800008A902F037F8002E14BFAC23A5232366CB
:10B29000BB6DA366002E3FF474AF1F48412219A96D
:10B2A00002F028F87B6823646BE7BA6DAB18A9EB52
:10B2B00002020021CDE9002119A852463946FFF7C4
:10B2C000AFFE00283FF437AFBAF1000FCFD1AA2369
:10B2D0002366DFE717262FE701238DF8093002A840
:10B2E000D8E9011398473EE7002EF0D04A462B4696
:10B2F000DFE700BFFC590020105A00202C5A002024
:10B30000246B0020845A0020C3B00700698907001D
:10B31000785A0020C05C0020425D00202DE9F043F7
:10B3200004468BB01822002104A801F0F1FF257813
:10B330008DF8105001238DF811306B1E0B2B00F28D
:10B340005681DFE813F01F0011001F001F00540199
:10B350001F0054011F005401540154010C00A54B5F
:10B360000720D3F8B8339847D4E9011304A89847C5
:10B370009DF81130012B00F02D819E4B0520D3F854
:10B38000B83326E1062D9C4A01D0012D02D1216956
:10B3900082F8241092F82460012E05D0022E7AD073
:10B3A000002382F82430C2E0072BDDD801A252F836
:10B3B00023F000BFD5B3070069B307008BB40700C3
:10B3C00053B4070069B3070085B4070069B30700E9
:10B3D00005B40700874F0320D7F8B833984766694C
:10B3E00066B1B6F5007F0BD8844B002283F8342079
:10B3F000FFF734F8FE668DF81150B5E70325FAE73C
:10B400000425F8E77B4DA78A286FEB6E3A189A421D
:10B410001DD8D4F8108028443A464146903001F0B7
:10B4200069FF2B6F05F174023B44394640462B6798
:10B43000FEF7FAF968672B6F05936B6F0693E36865
:10B440008DF81160002B8FD0206998478CE7032678
:10B45000F1E7FFF7EFFC0A2807D9664B0B3883F8B2
:10B46000D4030B238DF811307EE701288DF81100ED
:10B470007FF47AAF0020FEF739FF00283FF474AF65
:10B480000A23EFE74FF4007307935A4B1A6F5B6F71
:10B490000592069368E7072B3FF666AF01A252F8C4
:10B4A00023F000BFC5B4070069B307009FB50700CC
:10B4B000ABB5070069B30700DBB5070069B3070048
:10B4C00033B507004D4890F834200AB90823C9E77E
:10B4D00062690AB90323C5E7C2F30B0333B14549D7
:10B4E000D1F88830096A13448B42F3D1B2F5805FFA
:10B4F00001D90423B6E73F4BD3F888101D6A5618CC
:10B50000AE42E3D89A67D3F88020C3F88410596616
:10B51000866BDA673A486269036802F6FF721D6952
:10B52000120B00233144A84700283FF41DAF052328
:10B5300098E7324890F83430002BC7D02D4DA38ABD
:10B54000D5E92121521AA96F1A448A42C2D8826BC6
:10B550006F6ED4F81080039319461744404605F1E6
:10B560007C02FEF761F906462548E1680268009111
:10B57000D2F80C90039B42463946C84708B1E368AD
:10B5800062E7A28A6B6E069613446B66A38AD5F8AF
:10B590008420EE671344C5F884300593E4E6154B28
:10B5A000DA6F0692D3F88430F7E7124DD5E92123FC
:10B5B000A96FD31A8B4289D1EB6FC5F88030002177
:10B5C0002046A967C5F88820FFF77BFDD5F8B8337A
:10B5D000042098470BB0BDE8F083064BDA6FD3F830
:10B5E000843005934FF4805306920793BCE6022300
:10B5F00038E700BF2C5A002068590020246B002037
:10B60000FC5900202DE9F043BB4DD5F84436DA074C
:10B6100095B000F16E8105F26463C5F83836C5F85F
:10B6200060061123013BDBB2FF2B40F05681002363
:10B63000CDE90E3385F83C36089310930DA802230C
:10B640000D93FDF799F90446002840F04281AB487C
:10B65000FDF799F90446002840F03B81FEF7D8F940
:10B660000446002840F03581A54B089301460C2282
:10B670000DA801F04DFE01260623089AADF83830DA
:10B680000DA920208DF834608DF83660FDF786F81E
:10B6900021460C220DA801F03BFE089A8DF835607A
:10B6A0000DA94020FDF77AF821460C220DA801F0E3
:10B6B0002FFEF723089AADF836300DA923208DF818
:10B6C0003460FDF76BF821460C220DA801F020FE36
:10B6D000089A8DF834600DA93046FDF75FF82146D1
:10B6E0000C220DA801F014FE4FF4B063089A0D93DC
:10B6F0000DA9A120FDF752F821460C220DA801F05A
:10B7000007FE9DF83430089A64F300030DA9A020C9
:10B710008DF83430FDF742F808A8FDF741F80446EB
:10B72000002840F0D68002461821764885F841640A
:10B73000FEF77AF87449D1F8643398420BD1734814
:10B740001C2201F5597101F0D5FDD5F8443643F0BE
:10B750000203C5F8443611230DA88DF82030FDF7FB
:10B7600035FA0446002840F0B4809DF835300DA825
:10B7700001338DF83530FDF72BFA0446002840F0F0
:10B78000A880D5F844369B0740F1AE806049486DEB
:10B79000403182B208A8FDF7B3F90446002840F012
:10B7A00098805C48FDF7AEF90446002840F091808F
:10B7B000594B4FF6FF721A8001204FF65963574AD2
:10B7C0008DF80A0002A9ADF80830FDF78FF904469C
:10B7D00000287ED1524B04AA03F1100716461868C0
:10B7E0005968144603C40833BB422246F7D14D4979
:10B7F0003046FDF7CCF8044600286AD101461C22E9
:10B800000DA801F085FD9DF83430B5F8BC03ADF806
:10B81000044043F004038DF834300223ADF80C30BB
:10B8200095F8BE338DF80E3004F0F80343F00303AF
:10B830008DF80630F423CDE90A4401AEADF82C3082
:10B840004FF01109384B0C9403AF08AA0DA9CDE9AC
:10B8500008768DF80590FDF747F9A0460446C0BB71
:10B8600001461C220DA801F053FD9DF83430B5F8B7
:10B87000BC03ADF8044023F0180343F018038DF81F
:10B8800034300123ADF80C3095F8BE338DF80E300E
:10B8900008F0E8081723CDE90A4448F01308ADF88A
:10B8A0002C3008AA214B0C940DA9CDE908768DF80F
:10B8B00005908DF80680FDF717F9044648B9FDF7A5
:10B8C0002DF9044628B9D5F8443643F00103C5F8EC
:10B8D0004436204615B0BDE8F083D5F83826511C13
:10B8E000C5F8381613709DE6114801F019FD10498E
:10B8F0004FE70024EDE700BF2C5A0020008007002E
:10B900006859002068F3070000F00700606B002012
:10B91000246B0020A0D6070068590020E85D0020B5
:10B92000FCD60700EA5D0020EC5D0020F45D0020FD
:10B9300081D3070007B50A4B0A4A00930A4B93428A
:10B9400008BF00230193019B13B903B05DF804FB0A
:10B95000D3E9002090476846FDF7DCFDF3E700BF20
:10B960000CD807002CDA07001CDA07001EF0040FC1
:10B970000CBFEFF30880EFF3098000F001B800BFBF
:10B9800070B5144B144A0C21D21AB2FBF1F2816942
:10B9900011F8025C044635B900690021914205D1D5
:10B9A000012323600EE04FF0FF30F6E71E68AE4241
:10B9B0000CD1461C07D19D68D4E90001D4E90223CB
:10B9C000A847206070BD5E688642F4D001310C3318
:10B9D000E4E700BFE4D90700F0D90700044B0022D8
:10B9E00082B01A601B680193019B02B0704700BFD0
:10B9F0000001014013B52A4B1A6852B12949D1F808
:10BA000078240132C1F8782400221A601B68009360
:10BA1000009B254B1A68A2B100221A6023481B68BC
:10BA2000027C0193019B4FF480339340204AC2F87B
:10BA300008338168044611BBC168E1B9636803B18A
:10BA400098471C4B1A684AB300221A6017481B68B3
:10BA500090F820200193019B4FF480339340144AC7
:10BA6000C2F808338169044669B1143002B0BDE8F8
:10BA70001040FDF720BB0430FDF71DFBDEE704306E
:10BA8000FDF719FBDDE7C16911B11430FDF713FBB8
:10BA900063691BB102B0BDE81040184702B010BD89
:10BAA00004410240246B00204041024068590020BC
:10BAB000004002404441024010B5FEF7FFF828B1B3
:10BAC000844B854A1B68C3F304231360FEF704F913
:10BAD00010B1824B824A1A60FEF7F0F828B1814B10
:10BAE000814A1B68C3F342331360FEF7F5F820B1B7
:10BAF0007E4AD36823F08073D360FEF7DFF840B14D
:10BB00004FF080430022C3F80C21C3F81021C3F882
:10BB10003825FEF7E1F810B1754B03221A60FEF7E5
:10BB2000DBF840B1734B05221A6001229A670022AC
:10BB30009A603F225A60704B1A68511C0BBF6F4BC2
:10BB40006F4B1A781B6802BF08331B68C3F30313DB
:10BB5000062A4FD1033B042B05D86A4A134493F8B5
:10BB60005834002B46D04FF08052674BD2F8041463
:10BB7000C3F82015D2F80814C3F82415D2F80C1411
:10BB8000C3F82815D2F81014C3F82C15D2F81414E1
:10BB9000C3F83015D2F81814C3F83415D2F81C14B1
:10BBA000C3F84015D2F82014C3F84415D2F8241471
:10BBB000C3F84815D2F82814C3F84C15D2F82C1441
:10BBC000C3F85015D2F83014C3F85415D2F8341411
:10BBD000C3F86015D2F83814C3F86415D2F83C14D1
:10BBE000C3F86815D2F84014C3F86C15D2F8442491
:10BBF000C3F87025FEF762F828B1444B444A1B682D
:10BC000003F04F031360FEF759F848B14FF080433B
:10BC1000D3F80024D20744BF6FF00102C3F8002418
:10BC2000354B1B68062B0ED1354B1B68033B042B91
:10BC300004D8344A134493F85D3423B1354A136869
:10BC400043F480631360344AD2F8883043F47003BD
:10BC5000C2F88830BFF34F8FBFF36F8F264B1B683E
:10BC6000062B11D1264B1B68033B042B04D8254A15
:10BC7000134493F862343BB14FF01023D3F80822F9
:10BC80004FF08043C3F858254FF01023D3F800221B
:10BC9000002A03DBD3F80432002B17DA1F490123F3
:10BCA000C1F80435FDF732FB4FF010201524C0F821
:10BCB0000042FDF72BFBC0F80442FDF727FB0023F1
:10BCC000C1F80435FDF722FBFCF74CFD144B154A77
:10BCD0009A6210BD240300104035014074C0074033
:10BCE0000DF0ADBA440200103C050040F0ED00E05C
:10BCF000A00500401056004030010010E00F00F099
:10BD000034010010C0D3070000C0004058020010EA
:10BD1000E40E00403C17004000ED00E000E0014070
:10BD2000685900200090D0034FF0A0444FF4004326
:10BD300080B54FF48042C4F80C350323C4F83C3777
:10BD4000C4F80C254FF48022C4F83837C4F808250D
:10BD50004FF00072C4F808250822C4F808254FF0F7
:10BD600080650422C4F808250A20C4F84837C4F8BE
:10BD70006437C4F80C37C4F80837C4F80C55C4F855
:10BD80006837FCF793FBC4F808553220FCF78EFBAC
:10BD9000002211460120FCF7BDFB1420FCF786FBB6
:10BDA000002211461120FCF7B5FB0A20FCF77EFBB0
:10BDB000C04D2C78002C50D1224621462920FCF77A
:10BDC000A9FBFCF7F7FBBC49DFF8F8824FF6FF72DE
:10BDD0002820FCF732FC4FF47842B8495020FCF799
:10BDE0002CFC4FF47A70FCF761FB40F6F8731A688C
:10BDF000013211D1B2490122C1F80425BFF36F8F7E
:10BE0000BFF34F8FC3F80080FDF780FAC1F80445F7
:10BE1000BFF36F8FBFF34F8F40F6FC731A68013288
:10BE200013D1A7490122C1F80425BFF36F8FBFF3D7
:10BE30004F8F4FF4FC221A60FDF768FA0023C1F817
:10BE40000435BFF36F8FBFF34F8F4FF48051002045
:10BE5000FDF7D8F940B1FCF785FC2A7A69682046DD
:10BE6000FCF758FB0C35A4E79648C8F5FC21FDF714
:10BE7000EEF905460028EED19349944C944F4FF6C5
:10BE8000E0725020FCF7D9FB924BC4F8983D4FF07C
:10BE9000A043914AC3F834272946904B3B6038466B
:10BEA000FDF7BBFC05460028D5D1FEF7EBFA284686
:10BEB000FEF71CFA06460028CDD1236EAA2B00F00F
:10BEC000C88000F28E80012B00F09480A52B00F03A
:10BED000BC804FF08043D3F8005415F4803500F057
:10BEE000BB804FF48032C3F800240025636D012B22
:10BEF00000F0C0804FF4701594F8F5330BB9FDF7DE
:10BF000053F9774BC4F8543603F58473C4F85836A4
:10BF1000002384F8513684F850361823A4F85C3690
:10BF20002023A4F852366F4B1A6802F0F902B12AA6
:10BF300002BF1A6802F04E021A60D4F88C30012B4E
:10BF400006D10023C4F88C30FEF7A8F9002882D16E
:10BF5000DFF8CC81DFF8AC9198F810204FF48033F3
:10BF60009340614AC2F80833FDF7DAF840465F4B68
:10BF700040F8043F2946FDF79EF85D4BC4F8B43302
:10BF80000020FCF7DBFC5B4D5B4BED1AED0898469F
:10BF9000B54240F02B81594B4D483B600021FDF7E5
:10BFA00079FB00287FF457AFE36E554D002B40F02E
:10BFB000268185F83430534BC4F8B833524D0023F2
:10BFC00084F8D433D5F800340BB1FDF759F894F860
:10BFD000502694F851369A4240F01E81FDF740F900
:10BFE000F0E7AC2B7FF475AFFEF7F0F978BBFEF706
:10BFF0001DF92CE0E16FA56DFCF762FC814240F079
:10C000003381FCF75DFC00222946FDF70DFCE36D52
:10C01000984202BF0123C4E91403E56400253B48AC
:10C02000FEF710FA00233A4884F82530FEF75EF94F
:10C0300000287FF410AF002D00F0D080636D012B3D
:10C0400040F0CC804FF4A02556E7FEF7BFF901255C
:10C05000E5E7FEF7EBF8E1E7D3F8202502F0F90277
:10C06000A92A03BFD3F8202502F05602C3F82025E1
:10C0700001253BE743F204031A68264B9A420BD092
:10C08000FCF71EFCE26C0146002D4BD02248FEF767
:10C090009BFF00284AD12DE7A26E1DB994F8943277
:10C0A000012BEDD01D484FF48051FEF78DFF002885
:10C0B000E6D11FE70CD7070089D3070091D307000B
:10C0C00000E00140008007009AD307002C5A0020AE
:10C0D000FC5900200D8707000C000300CCD7070097
:10C0E0007C6B00201C0500400040024029A4070092
:10C0F0008DA50700E4D90700DCD90700ECD70700BD
:10C10000246B00203D89070000000140845A002074
:10C11000D9840700DBE5B151015D0020C05C00203F
:10C120006859002094F8D532012BAFD14FF0A043CD
:10C13000D3F810359B047FF5DDAE504B1B6803F040
:10C14000F903B12B3FF4D6AED4F88C30012B3FF479
:10C15000D1AED4F85833D4F898231340013378D1B2
:10C1600000234749474884F82430FEF711F8464B2E
:10C1700046484FF0FF32C3F88020C3F880214FF0CB
:10C1800000534FF480561E60C8F5FE21FDF75FF89E
:10C19000054600287FF45FAEFCF792FBE36C03F6E4
:10C1A000FF7323F47F6323F00F0319182846FDF76C
:10C1B0004EF800287FF44FAEEFF3058341F20403FD
:10C1C00032681B6880F3148880F3108880F311882C
:10C1D00080F3138882F3088898473CE600232849B7
:10C1E0002B4884F82430FDF7D3FF34E658F8363076
:10C1F0004846984700287FF42EAE0136C8E6FEF781
:10C200007EFC85F8340000283FF4D5AEFEF712FE20
:10C2100001283FF4D0AE1EE694F85036D4F85426E8
:10C22000B4F85C66D4F8580602EBC30103FB0600C1
:10C2300052F833208988904794F85026B4F8521663
:10C24000D3B2914286BF0133DBB2002384F850366B
:10C25000BDE64FF4FE20FDF781F80E49C9224FF4E8
:10C26000FE20FDF75BF87BE7636EEA1A1944184479
:10C27000FEF74AF800287FF4D1AEC2E61C05004064
:10C2800000F00700C984070000E100E0008007001B
:10C290008F870700605A00208B1802448B4200D120
:10C2A000704713F8010D02F8010DF7E700000000D8
:10C2B000C3F10803DB0070B501330446002003A579
:10C2C0005B1920C940CAAD1920C4184720C940CA0B
:10C2D000754120C420C940CA754120C420C940CA44
:10C2E000754120C420C940CA754120C420C940CA34
:10C2F000754120C420C940CA754120C420C940CA24
:10C30000754120C4404170BD0000000000000000E5
:10C31000C3F10803DB0070B50133002403A500BF9F
:10C320005B1920C940CAAD1B20C0184720C940CAAC
:10C33000B54120C020C940CAB54120C020C940CA6B
:10C34000B54120C020C940CAB54120C020C940CA5B
:10C35000B54120C020C940CAB54120C020C940CA4B
:10C36000B54120C06441B4FA84F0400970BD00BFFB
:10C370002DE9F04F08B4F8CA04B451F8042BA3FB1C
:10C38000028940F8048B4FF0000AE4FB629A4FF0F8
:10C39000000BE5FB62AB4FF0000CE6FB62BC4FF01C
:10C3A000000EE7FB62CE51F8042B4FF00008E3FBD0
:10C3B000628940F8048BE4FB629AE5FB62ABE6FB22
:10C3C00062BCE7FB62CE51F8042B4FF00008E3FBA0
:10C3D000628940F8048BE4FB629AE5FB62ABE6FB02
:10C3E00062BCE7FB62CE51F8042B4FF00008E3FB80
:10C3F000628940F8048BE4FB629AE5FB62ABE6FBE2
:10C4000062BCE7FB62CE51F8042B4FF00008E3FB5F
:10C41000628940F8048BE4FB629AE5FB62ABE6FBC1
:10C4200062BCE7FB62CE40F8049B40F804AB40F8E6
:10C4300004BB40F804CB40F804EB0CBC052B00F027
:10C440001E810C68A0F11400A1F11401A2F11402E4
:10C4500052F804EB4FF0000550F8046BE4FB6E5605
:10C4600052F804EB50F8047BE4FB6E6752F804EBDF
:10C4700050F8048BE4FB6E7852F804EB50F8049B00
:10C48000E4FB6E8952F804EB50F804ABE4FB6E9ABF
:10C49000A0F1140052F8044B51F804EB4FF0000CDB
:10C4A000E4FB6EC540F804CB51F804EBE4FB6E5698
:10C4B00040F8045B51F804EBE4FB6E6740F8046B52
:10C4C00051F804EBE4FB6E7840F8047B51F804EB80
:10C4D000E4FB6E8940F8048B51F804EBE4FB6E9AA0
:10C4E000A0E80006062B00F0CA800C68A0F1180036
:10C4F000A1F11801A2F1180252F804EB4FF0000567
:10C5000050F8046BE4FB6E5652F804EB50F8047BD1
:10C51000E4FB6E6752F804EB50F8048BE4FB6E7892
:10C5200052F804EB50F8049BE4FB6E8952F804EBDC
:10C5300050F804ABE4FB6E9A52F804EB50F804BBDD
:10C54000E4FB6EABA0F1180052F8044B51F804EB79
:10C550004FF0000CE4FB6EC540F804CB51F804EB3F
:10C56000E4FB6E5640F8045B51F804EBE4FB6E67A5
:10C5700040F8046B51F804EBE4FB6E7840F8047B60
:10C5800051F804EBE4FB6E8940F8048B51F804EB9E
:10C59000E4FB6E9A40F8049B51F804EBE4FB6EABAD
:10C5A000A0E8000C072B6AD008B40C68A0F11C00AE
:10C5B000A1F11C01A2F11C0252F804EB4FF000059E
:10C5C00050F8046BE4FB6E5652F804EB50F8047B11
:10C5D000E4FB6E6752F804EB50F8048BE4FB6E78D2
:10C5E00052F804EB50F8049BE4FB6E8952F804EB1C
:10C5F00050F804ABE4FB6E9A52F804EB50F804BB1D
:10C60000E4FB6EAB52F804EB50F804CBE4FB6EBCD9
:10C61000A0F11C0052F8044B51F804EB4FF000035A
:10C62000E4FB6E3540F8043B51F804EBE4FB6E5636
:10C6300040F8045B51F804EBE4FB6E6740F8046BD0
:10C6400051F804EBE4FB6E7840F8047B51F804EBFE
:10C65000E4FB6E8940F8048B51F804EBE4FB6E9A1E
:10C6600040F8049B51F804EBE4FB6EAB40F804ABDC
:10C6700051F804EBE4FB6EBCA0E8001808BCBDE870
:10C68000F08F002310B51C465AB2914200DC10BD59
:10C6900040F823400133F7E710B500231A465CB297
:10C6A000A14203DCB2FA82F0400910BD50F82340E9
:10C6B00001332243F3E74A11012350F8220001F02D
:10C6C0001F0103FA01F108407047013910B549B262
:10C6D000041D0A06CBB204D4013954F82120002AE3
:10C6E000F7D001335BB273B103F18042013A50F8E5
:10C6F0002220002022B9013B00EB431318B210BDE9
:10C7000052080130F6E71846F9E710B500235CB28D
:10C71000A24200DC10BD51F8234040F82340013311
:10C72000F5E710B5013A52B2130601D5002010BD4D
:10C7300050F8224051F822309C4205D802F1FF32D5
:10C74000F2D24FF0FF30F2E70120F0E700EB810179
:10C750000023884200D3704751F8042D43EA520366
:10C760000B60D307F5E737B51D469DF918300193E7
:10C770000446FFF79DFD019B38B91A46214628461D
:10C78000FFF7CFFF0128019B07D02A46214620460C
:10C7900003B0BDE83040FFF7BBBD03B030BD37B5D7
:10C7A0001D469DF9183001930446FFF7B1FD019B2A
:10C7B00038B12A462146204603B0BDE83040FFF795
:10C7C00077BD03B030BD2DE9F04FB5B004AC9DF995
:10C7D000F8501E4680462B462046FFF7C9FD24AB85
:10C7E00029463046CDE90234FFF76FFFC0EB8510D4
:10C7F00004B2002C2146B8BF04F11F01634241F38B
:10C80000471103F01F0314A804F01F0758BF5F422D
:10C81000FFF737FF002F08B22BDD14AB002203EB2C
:10C820008001C7F1200E1346AB4217D36B00019372
:10C8300014AB03EB85096F1E34AB012603EB8707AE
:10C84000002C54DA34AB03EB86062A4656F8C81C93
:10C850004046FFF75AFF35B0BDE8F08F56F823C0C9
:10C860000CFA07F0024341F8042B01332CFA0EF2C4
:10C87000DAE714AB2A46314603EB8000FFF745FFA9
:10C88000D4E70FFA82FE5AF8C83C53F82EB034AB06
:10C8900003EB8202013052F8803C0B44BBEB0303F4
:10C8A00034BF012200229B4518BF11465CF8C82CFA
:10C8B00042F82E30019B42B29A42E2DB731A5E428A
:10C8C000294614A85E41FFF741FF34AB03EB850313
:10C8D000294653F8802C57F8803C484643EAC273F7
:10C8E000013C47F8803C24B2FFF730FFA8E734ABA7
:10C8F0000020C6F1010C014603EB860A03EB8C0C09
:10C90000D8E730B51C4691B0054693F9003068462B
:10C91000FFF72EFDD4F8AC3069462846984711B091
:10C9200030BD13460A46FFF7ECBF2DE9F04793F9F7
:10C93000006092B0044689461046314615461F46AF
:10C94000FFF7AAFE002840F091803A46494602A827
:10C95000FFF7E7FF3B4602AA21460AA8FFF7D1FFEF
:10C9600002A908463A46FFF7DCFF3B462A464946FD
:10C970004846FFF7C6FF07F104083A46294628460D
:10C98000FFF7CFFF43462A46214620460096FFF791
:10C99000EAFE43462A46294628460096FFF7E3FE6C
:10C9A00043462A46214628460096FFF7F8FE3B46B6
:10C9B0002A4621462046FFF7A4FF43462246214649
:10C9C00028460096FFF7CFFE434600962A462146AA
:10C9D0002046FFF7C8FE2368DB074AD533464246A8
:10C9E00021462046FFF764FC314682462046FFF789
:10C9F000ADFE06F18043013B54F8232042EACA729F
:10CA000044F823203A4621462846FFF78AFF43464A
:10CA10000AAA294628460096FFF7C1FE43460AAAFD
:10CA2000294628460096FFF7BAFE0AA9084643465B
:10CA30002A460096FFF7B3FE3B460AAA2146204647
:10CA4000FFF75FFF02AA4346104621460096FFF714
:10CA5000A6FE324629462046FFF757FE494628469D
:10CA6000FFF753FE02A94846FFF74FFE12B0BDE89C
:10CA7000F08731462046FFF769FEC3E72DE9F04114
:10CA800015468AB004460E461C22002103A800F079
:10CA90003FFC2F1D95F9008003232A46314620468E
:10CAA0000293FFF73EFF3B4602AA21462046CDF8FF
:10CAB0000080FFF774FE2B46324621462046FFF7E2
:10CAC00020FFCDF800803B4605F184022146204638
:10CAD000FFF749FE0AB0BDE8F08100002DE9F04201
:10CAE000082288B00C468146FFF70FFECB6A0393FD
:10CAF0000B6B04934B6B05938B6B0693CB6B07937C
:10CB0000002708236A4669466846CDE90177009701
:10CB1000FFF7CEFB082305466A4649464846FFF71D
:10CB2000C7FB236B0393636B0493A36B0593E36BC6
:10CB30000544CDE906376A46082369466846FFF78B
:10CB4000B7FB082305446A4649464846FFF7B0FB51
:10CB5000236A0093636A0193A36A0293A36B06930B
:10CB6000E36B0793054408236A4649464846CDE9E6
:10CB700004770397FFF79CFB636A0093A36AA26B99
:10CB80000193E36A02930492636BE26B0393CDE932
:10CB90000523236A07932E1808236A464946484608
:10CBA000FFF786FBE36A0093236B0193636B0293A9
:10CBB000236A0693A36A0793351808236A464946F1
:10CBC0004846CDE904770397FFF7A2FB236B009358
:10CBD000636B0193A36B0293E36B0393636A069306
:10CBE000E36A07932E1A08236A4649464846CDE968
:10CBF0000477FFF78DFB636B0093A36B0193E36BEB
:10CC00000293236A0393636A0493A36ACDE9053709
:10CC1000236B0793361A08236A4649464846FFF7AE
:10CC200077FBA36B0093E36BCDE90137636A039352
:10CC3000A36A0493E36ACDE90537636B0793361A59
:10CC400008236A4649464846FFF762FB361A0E4CEF
:10CC50000FD436B9082249462046FFF762FD012865
:10CC60000FD00823224649464846FFF751FB361AA3
:10CC7000EFE70823224649464846FFF719FB3618D6
:10CC8000F7D408B0BDE8F08228D9070070B5144683
:10CC90008AB006460D461A46214602A80193FFF7C0
:10CCA00040FE019B02AA31463046FFF72AFE02A948
:10CCB000019B22460846FFF724FE019B02AA294653
:10CCC0002846FFF71EFE0AB070BD2DE9F0478AB076
:10CCD0001446DDF848A055461F4615F9046B00962A
:10CCE000804689462B460246214602A8FFF757FD9B
:10CCF00002A952460846FFF714FE534602AA4146CF
:10CD00004046FFF7FEFD534602AA21462046FFF7A4
:10CD1000F8FD2B464A46394638460096FFF73FFD58
:10CD20005246394602A8FFF7FCFD02A92B464246AF
:10CD300008460096FFF733FD02A92B462246084617
:10CD40000096FFF72CFD2B464246214620460096D2
:10CD5000FFF725FD5346224649464846FFF7D1FDD9
:10CD60002B4602AA414620460096FFF718FD53467F
:10CD7000224639463846FFF7C4FD2B464A46394617
:10CD800038460096FFF70BFD324602A92046FFF712
:10CD9000BCFC0AB0BDE8F0872DE9F0479846B3F92E
:10CDA0000230894613F11F0148BF03F13E01DD1D2A
:10CDB00048BF03F10E05EC104E11944275B228BF26
:10CDC000144629460746FFF75CFC22464946FFF712
:10CDD00063FAB8F90230B3EBC40F4FEAC40220D2B1
:10CDE000D21A07EB86010020C2F120068F420FD332
:10CDF00008F124082A4639464046FFF792FC0128EC
:10CE00000FD02B4642463846BDE8F047FFF780BAC0
:10CE100051F8044D24FA02F303430B6004FA06F0C0
:10CE2000E4E7BDE8F08770B5036813F00106054636
:10CE3000144605D013460A460146FFF739FA06465E
:10CE400021462846FFF782FC46B104F18042013AB0
:10CE500055F8223043F0004345F8223070BDF0B55C
:10CE60000F46A1B006461946384615461C46FFF740
:10CE700013FC20B13046FFF704FC21B0F0BD224680
:10CE800039466846FFF741FC294608A8FFF73DFCF4
:10CE900010A82146FFF7F5FB012318A81093FFF710
:10CEA000F0FB224608A96846FFF73BFC28B922465A
:10CEB00010A93046FFF729FCDFE7009BDA0709D409
:10CEC00021466846FFF742FC2246294610A8FFF794
:10CED000AAFFE6E7089BDB0707D4214608A8FFF76F
:10CEE00035FC2246294618A8F1E7002823461CDD18
:10CEF00008AA69466846FFF70BFA21466846FFF71D
:10CF000025FC224618A910A8FFF70BFC002805DA1B
:10CF100010A923462A460846FFF7CAF910A9234656
:10CF200018AA0846FFF7F4F9CEE708A96A460846AA
:10CF3000FFF7EEF9214608A8FFF708FC224610A9E2
:10CF400018A8FFF7EEFB002805DA18A923462A46A1
:10CF50000846FFF7ADF918A9234610AA0846FFF7BF
:10CF6000D7F9BEE70048704724D907002DE9F04FF4
:10CF70002DED028BEDB08946789E05901946B6F9E5
:10CF8000023096F9004013F11F0748BF03F13E0736
:10CF900047F3471707F1FF3B24AB002543F82B501D
:10CFA0006CAB03EB8B0307EE902A4CA896F901209B
:10CFB00043F8805C43F8605CFFF76EF996F9012056
:10CFC00054A81144FFF768F921464CA8FFF764FB09
:10CFD0008046002840F0428154A8FFF75DFB039093
:10CFE000002840F03D8106F1240A3A464CA95046FB
:10CFF000FFF797FB012840F035813A4654A9504687
:10D00000FFF78FFB0128069040F02C811CAD3B46BA
:10D01000524654A92846FFF722FF0DF13008039B22
:10D0200048F82B3017EE902A494640463346FFF722
:10D03000B3FE4146404653462A460097FFF7C3FBDE
:10D040000DF5B87B53462A464CA914A80097FFF764
:10D05000BAFB224658460599FFF757FBA3000793F2
:10D06000059B0BEB840903EB84014846FFF74DFB5E
:10D0700006F14403194634A80493FFF746FB049BCA
:10D08000A10059183CA8FFF740FB331D08EE903A69
:10D09000594634AA28460094FFF781FB4B465A466E
:10D0A0003CA934A80096FFF710FE18EE902A2346FC
:10D0B00029462846FFF7D3FE2A46494658463346B6
:10D0C000FFF7E4FD039B0893049B0993059B3946F6
:10D0D0004046CDE90A3BFFF7F8FA3946834614A8E3
:10D0E000FFF7F3FA5845B8BF58461FFA80FB0BF11B
:10D0F000FF3109B240460491FFF7DDFA0499B0F11F
:10D10000000814A818BF4FF00108FFF7D4FA002850
:10D1100014BF0220002048EA00080DF12009224631
:10D1200059F8281024A8FFF7F0FA0DF1B009A30070
:10D1300019444846FFF7E9FA21462846FFF7A1FAC5
:10D14000069B2B60ABF1020824AB08EE105A0FFAD5
:10D1500088F80493B8F1000F2ADA18EE902A18EE36
:10D16000101A18EE100A2346FFF779FE18EE102A5F
:10D17000049833464946FFF789FD04993A465046DC
:10D18000FFF7CFFA012805D004993B4652460846DE
:10D19000FFF7BEF8013C64B24CAA230653D5039BAB
:10D1A000B3FA83F040096DB0BDEC028BBDE8F08F9F
:10D1B000334618EE102A0498D6F8A4504946A847DA
:10D1C00041460CA8FFF777FA4146B0F1000B14A8CE
:10D1D00018BF4FF0010BFFF76EFA002814BF0220B2
:10D1E00000204BEA000B08AB53F82B1031B322465A
:10D1F00034A8FFF78AFA079B3CA81944FFF785FA81
:10D2000018EE102A33463CA934A8FFF73FFD18EE6C
:10D21000903A0499009434AA44A8FFF7C0FA049AFB
:10D2200000964B463CA934A8FFF74FFD18EE101AA4
:10D2300018EE100A334644AAFFF763FB08F1FF38E3
:10D240000FFA88F886E7049B52F8241053F824302C
:10D250004B40039919430391013C9EE72846A2E7FE
:10D260004046A0E703989EE708B5074B044613B174
:10D270000021AFF30080054B1868836A03B198471B
:10D28000204600F055F800BF00000000D4D9070088
:10D2900070B50D4D0D4C641BA4100026A64209D19B
:10D2A0000B4D0C4C00F046F8641BA4100026A6425F
:10D2B00005D170BD55F8043B98470136EEE755F8A7
:10D2C000043B98470136F2E7F4590020F459002056
:10D2D000F4590020F859002030B501390024A24249
:10D2E00001D1002005E0035D01340D5DAB42F6D0B5
:10D2F000581B30BD0A44914200F1FF3300D1704702
:10D3000010B511F8014B03F8014F9142F9D110BD4E
:10D3100002440346934200D1704703F8011BF9E72A
:10D32000034613F8012B002AFBD1181A0138704765
:10D33000FEE700BFF8B500BFF8BC08BC9E467047CA
:10D34000F8B500BFF8BC08BC9E467047444655205F
:10D350004552524F5220004649524D5741524500C6
:10D3600044465520524541445920004446552041E9
:10D370004354495645004446552053544152542085
:10D380000044667554617267004D594054494D45DB
:10D39000004B4559204446555C00424F4F54494E7E
:10D3A000473B0055002B002C0001FF0011000F002F
:10D3B000A4A1000000000000000000000000000028
:10D3C000D58B0700C994070009A6070020000000BC
:10D3D00078000000000000000000000000000000D5
:10D3E0000338FDD87047D75D7552957C1513FF1D26
:10D3F000FF7F645ABF7EA91ABF7E5040922E101143
:10D40000822E5040823C454BF94D404B423DFE57E9
:10D410002559F57B255B3E577F594A798A794A59C8
:10D42000775F9E656D5BAD6B2D5B15577B5B545BCA
:10D43000527B51759654ED076D0492041505D5275E
:10D44000010011000400FCFF0400000000000000C7
:10D45000020011000400FCFF0400000000000000B6
:10D46000030021000400FCFF040010000000000085
:10D47000040011000100FFFF010000000000000097
:10D48000050011000200FEFF040000000000000083
:10D49000060011000400FCFF040000000000000072
:10D4A000070011000400FCFF040000000000000061
:10D4B000080017000200FEFF240000005CD80700EF
:10D4C000090010000100FFFF0100000058D807000C
:10D4D0000A0027000200FEFF4400030028D80700CE
:10D4E000000000000000000000000000000000003C
:10D4F0000338FDD870470000DB319EB682F408B2D5
:10D50000292078DC577873CAE78A4D349BD8B6A2B5
:10D51000ADF97508105C488B9E0BB3EE7F7CF8D09C
:10D52000642AC73140FF55F7A9D3EE1AA8BD7D681C
:10D5300031B12BEB6C58A7A5480028000020400013
:10D5400065CF0700982F8A4291443771CFFBC0B551
:10D55000A5DBB5E95BC25639F111F159A4823F92BE
:10D56000D55E1CAB98AA07D8015B8312BE85312417
:10D57000C37D0C55745DBE72FEB1DE80A706DC9BD8
:10D5800074F19BC1C1699BE48647BEEFC69DC10F84
:10D59000CCA10C246F2CE92DAA84744ADCA9B05CC0
:10D5A000DA88F97652513E986DC631A8C82703B083
:10D5B000C77F59BFF30BE0C64791A7D55163CA0691
:10D5C00067292914850AB72738211B2EFC6D2C4D9D
:10D5D000130D385354730A65BB0A6A762EC9C2818B
:10D5E000852C7292A1E8BFA24B661AA8708B4BC221
:10D5F000A3516CC719E892D1240699D685350EF44B
:10D6000070A06A1016C1A419086C371E4C77482701
:10D61000B5BCB034B30C1C394AAAD84E4FCA9C5B77
:10D62000F36F2E68EE828F746F63A5781478C884C8
:10D630000802C78CFAFFBE90EB6C50A4F7A3F9BEAA
:10D64000F27871C62CDA070034DA0700080000000F
:10D6500004DA07000CDA07000800000014DA0700FB
:10D660001CDA0700080000000CDA070014DA0700D3
:10D67000080000000010000004000000010000008D
:10D680000010000004000000010000000000000085
:10D690000338FDD8704701000007010000000000BA
:10D6A0000C000C00000058029B8D07003F8D070006
:10D6B000CD8C0700938F0700798F0700398F070003
:10D6C000F98E0700D9AB0700000000000100170029
:10D6D0000400FCFF68010000CCD80700020017001E
:10D6E0000400FCFFAC0100008CD807000000000023
:10D6F00000000000000000000000000050EADA30E6
:10D700008883B89F604F15F30000C98E3A0000006F
:10D71000A3D307000100000036000000FCD807007A
:10D7200001000000B2000000FED807000500000064
:10D73000B70000008FD3070001000000BB0000000D
:10D74000A5D3070001000000C0000000A7D3070018
:10D7500001000000C2000000A9D307000200000081
:10D76000C3000000ACD3070001000000C4000000AB
:10D7700055D3070001000000C6000000AED307002B
:10D7800001000000D0000000B0D30700020000003C
:10D79000E000000004D907000E000000E1000000D6
:10D7A00013D907000E000000210000000000000057
:10D7B0000000000013000000000000000000000056
:10D7C0000000000000000000000000001B9807009F
:10D7D0001198070075A10700B1970700459707004A
:10D7E0008D960700859607003397070095960700EA
:10D7F000DDAC070083A1070079AC070017AC070078
:10D800009196070089960700719607001CDA0700B9
:10D810002CDA0700080000000000010101000000F0
:10D8200001010000000001000100010000000000F3
:10D8300001000000000000000200050001000000DF
:10D840004200000000000000000000000000000096
:10D8500000000000000000000000000001000100C6
:10D8600000000000010000000000000002000500B0
:10D870000100000022000000000000000000000085
:10D880000000000000000000000000000100070090
:10D890000000000068010000CCD807000200010071
:10D8A000000000000100000000000000030005006F
:10D8B0000100000042000000000000000000000025
:10D8C0000000000000000000000000000100110046
:10D8D0000100FFFF0100000000000000020017002F
:10D8E0000200FEFF6401000040D4070000000000B9
:10D8F00000000000000000000000000000000C0C10
:10D9000000333300D000050E150D374347091512BB
:10D91000161900D000050D0C062D44400E1C1816DB
:10D920001900000008200001FFFFFFFFFFFFFFFFBD
:10D93000FFFFFFFF000000000000000000000000EB
:10D9400001000000FFFFFFFF512563FCC2CAB9F3CD
:10D95000849E17A7ADFAE6BCFFFFFFFFFFFFFFFFA6
:10D9600000000000FFFFFFFF96C298D84539A1F4E0
:10D97000A033EB2D817D0377F240A463E5E6BCF88C
:10D9800047422CE1F2D1176BF551BF376840B6CB57
:10D99000CE5E316B5733CE2B169E0F7C4AEBE78E53
:10D9A0009B7F1AFEE242E34F4B60D2273E3CCE3BC8
:10D9B000F6B053CCB0061D65BC86987655BDEBB36A
:10D9C000E7933AAAD835C65A2BC907007DCA070083
:0CD9D000DDCA0700945900200000000090
:08D9DC0005B60700A999070038
:0CD9E4000000000003000000D3870700D3
:10D9F0006460002090600020A1600020A06F0020E3
:04DA0000F40000002E
:08DA0400FD9D07000000000079
:08DA0C0059960700000000001C
:08DA1400699C070000000000FE
:10DA1C00D1950700000000002D95070000000000C4
:08DA2C00B19A070000000000A0
:08DA34000CA8FF7F01000000B7
:10DA3C00FFFFFF00000000000000000000000000DD
:10DA4C0000000000000000000000000000000000CA
:10DA5C0001000000010000000090D0030000000055
:10DA6C0000000000000000000000000000000000AA
:10DA7C00000000000000000000000000000000009A
:10DA8C00000000000000000000000000000000008A
:10DA9C00000000000000000000000000000000007A
:10DAAC00000000000000000000000000000000006A
:10DABC0000000000000000000000000025820700AC
